:10000000801D0020FD1D000011580000D11D0000C2
:10001000D11D0000D11D0000D11D00000000000016
:10002000000000000000000000000000D91A0000DD
:10003000D11D000000000000851A0000D11D000045
:10004000891B0000891B0000891B0000891B000020
:10005000891B0000891B0000891B0000891B000010
:10006000891B0000891B0000891B0000891B000000
:10007000891B0000891B0000891B0000891B0000F0
:10008000891B0000891B0000891B0000891B0000E0
:10009000891B0000891B0000891B0000891B0000D0
:1000A000891B0000891B0000891B0000891B0000C0
:1000B000891B0000891B0000891B0000891B0000B0
:1000C000891B0000891B0000891B0000891B0000A0
:1000D000891B0000891B0000891B0000891B000090
:1000E000891B0000891B0000891B0000891B000080
:1000F000891B0000891B0000891B0000891B000070
:1001000053B94AB9002908BF00281CBF4FF0FF317E
:100110004FF0FF3000F00CB8ADF1080C6DE904CEE3
:1001200000F008F8DDF804E0DDE9022304B07047D0
:10013000704700BF2DE9F04F07468C460846099EE0
:1001400015463C461946002B40F0C6808242B2FA62
:1001500082F746D94FB1C7F1200E24FA0EFE00FAFD
:1001600007F3BD404EEA030CBC404FEA15481FFAA6
:1001700085FEBCFBF8F9220C08FB19C309FB0EFA3B
:1001800042EA03439A4528D9EB1809F1FF3004D21B
:100190009A4502D9A9F102002B44A3EB0A03A4B2A9
:1001A000B3FBF8F208FB123302FB0EFE44EA0344F1
:1001B000A64514D92C1902F1FF3303D2A64501D963
:1001C000931E2C44A4EB0E0443EA00401EB1FC40F5
:1001D000002334607360BDE8F08F4846DDE71346C6
:1001E000F0E702B9FFDE87BB831A01214FEA154E03
:1001F000AAB2B3FBFEFC200C0EFB1C330CFB02F876
:1002000040EA0343984563D9EB180CF1FF3004D260
:10021000984502D9ACF102002B44A3EB0803A4B229
:10022000B3FBFEFC0EFB1C330CFB02F244EA03445E
:10023000A2424FD92C190CF1FF3304D2A24202D9A9
:10024000ACF102032C44A41ABEE7C7F1200C20FA3B
:100250000CF800FA07F324FA0CFCBD404CEA030248
:100260004FEA154EABB2B8FBFEFC110C0EFB1C8026
:100270000CFB03F941EA0040814504FA07F423D955
:1002800028180CF1FF3104D2814502D9ACF10201EA
:100290002844A0EB090092B2B0FBFEFC0EFB1C0050
:1002A0000CFB03F842EA004398450FD9EB180CF118
:1002B000FF3204D2984502D9ACF102022B44A3EBE1
:1002C000080342EA014191E76146E2E76246F6E748
:1002D0006046A2E76346B6E7834205D90EB1C6E998
:1002E00000700021084676E7B3FA83F181B98342B2
:1002F00001D3BA420AD8BC1A60EB030301209C4622
:10030000002E68D0C6E9004C002164E70846F7E7F4
:10031000C1F1200C8B4022FA0CF41C4302FA01F5C7
:1003200000FA01F327FA0CF220FA0CFB4FEA144909
:100330001343BBFBF9F81FFA84FE09FB18BB1A0C28
:1003400008FB0EFA42EA0B42924507FA01F73ED942
:10035000A21808F1FF3004D2924502D9A8F1020098
:100360002244A2EB0A029BB2B2FBF9F809FB182265
:1003700008FB0EFE43EA024296452AD9A21808F16C
:10038000FF3304D2964502D9A8F10203224443EA7E
:100390000040A0FB0593A2EB0E029A42CE4698467F
:1003A00002D306D14F4504D2B9EB050E63EB040826
:1003B000013886B1B7EB0E0362EB080707FA0CFCB5
:1003C000CB404CEA0303CF40C6E900379CE74046E8
:1003D000C7E74346DBE73146FDE600002DE9F0477D
:1003E0001448154FDFF8548005F0B6F805F073F89F
:1003F00044F62063C41841F100069946DFF840A096
:1004000000255AF8041B3846013505F0A5F80A2DD9
:10041000F7D1404605F0A0F805F05DF8A04271EB79
:100420000603EBDA201A05F064F814EB090446F130
:100430000006E3E7EC6700000A6800006768000058
:10044000FC0300202DE9FF412948DFF8A88005F0D2
:1004500083F805F040F8284B41F2883404199E686F
:1004600041F100050DF103030193012203230292E0
:100470008DF80C302048B7684D2301A9B847C8F85B
:10048000000028B11D4B1E481A784D2105F064F874
:100490009DF903309DF803101A4F002B21DA1A48FA
:1004A00005F05AF89DF80320BB6AA2F5807247F860
:1004B00023200A22013393FBF2F102FB1133BB62CA
:1004C00005F009F8A04271EB0503CBDA41F288335D
:1004D000E718A4EB000045F100053C4605F009F8DB
:1004E000C0E70A4805F038F8BB6A9DF80320DEE74C
:1004F0000F680000F8030020F4630000200D0020C6
:1005000030680000FC030020696800006A68000091
:10051000F0B58DB0284C204605F081FD216828B942
:1005200026480DB0BDE8F04005F016B8244D25482A
:1005300005F012F82B780993012202230A928DF814
:100540002C30A36820469E6809A94D23B0471E4B56
:100550000446186038B12A781C484D210DB0BDE81A
:10056000F04004F0F9BF01F007FE002601F010FE94
:1005700000270325CDE90667CDE90245CDE9004412
:10058000134B144904944FF48062134803F07EFF28
:10059000124B1860124B13490094CDE90667CDE960
:1005A0000354CDE901444FF480620F4803F06EFF1D
:1005B0000E4B18600DB0F0BDF46300006F680000D2
:1005C000200D00208A680000F8030020A1680000C8
:1005D0004504000040110020500200202C0400209F
:1005E000DD03000060150020D00100202804002059
:1005F0000B6801330B60014B1B681847000000209B
:10060000014B1860704700BF0000002007B50B4683
:10061000002102460191034801A900F0E5F803B06A
:100620005DF804FBF10500002DE9F84FB0F81890D3
:1006300019F00808044693460DD001290CBF49F073
:10064000100949F02009A0F818908BF31188BFF326
:100650006F8FBDE8F88F09F00709022907D12046FE
:1006600004F087FF0028F0D00128238B4ED1676962
:10067000218B002F15DA256821F00701C4E90088D5
:1006800041F0010121830026218B01F0070ACA45B0
:1006900002D0A368002B5AD10DB9002E71D00023CF
:1006A00056E001F007035A1F012A1ED821F0070166
:1006B000062B256889B2C4E900880AD13DB1638B55
:1006C0002A46126801339BB2002AFAD1638341F0B3
:1006D00002012183204604F04CFF06460028D3D0B7
:1006E000238B43F020032383CDE7042B0CD121F08F
:1006F000070189B22183204604F03BFF054600280C
:10070000C1D041F0200121830025BCE7032809D195
:10071000226923F00703166843F0060323830025AC
:100720002F46B1E7042806D1226923F00703566853
:1007300043F00403F2E7052806D1226923F00703FA
:10074000966843F00503E9E700252E46E8E7012314
:1007500041F0080121838BF31188BFF36F8FFBB940
:1007600085BB16B11F492046B0474FF02003EFF379
:10077000118B83F31288BFF36F8F238B23F0080351
:100780002383238BDA0625D523F01003238301214D
:10079000B4F8189009F0070900297FF45EAF54E718
:1007A000A1680029DCD0D1F80090D1F804B03B4614
:1007B00052462046D847B9F1000FD1D04946D9F862
:1007C0000090F2E729463B46524620462D6804F049
:1007D000ECFEC5E713F020011EBF23F020032383A6
:1007E0000221D5E7D75500002DE9F04F81469BB097
:1007F0008A4615461C460026287810B9304600F077
:10080000EEBD6B1C2528029306D05146C847002830
:10081000C0F2E58501364CE2182200210CA805F053
:1008200023F86B78252B7CD00022681C96469046D6
:1008300094461746014610F8013B2B2B00F0A08090
:1008400000F29780202B00F09E80232B00F09E80EA
:100850002FB19DF8380040F004008DF83800BCF14D
:10086000000F05D09DF8380040F008008DF83800E2
:10087000B8F1000F05D09DF8380040F010008DF859
:100880003800BEF1000F05D09DF8380040F0200080
:100890008DF838002AB19DF8382042F040028DF8DA
:1008A00038209DF8382002F04400442803D16FF32B
:1008B00086128DF838209DF838202A2B42F08002CD
:1008C0008DF838207ED19DF8392042F001024B1C72
:1008D0008DF839201A782E2A9DF839200CBF012175
:1008E000002161F341028DF8392077D15A782A2A04
:1008F0006DD0013300214FF00A0C184610F8012B7F
:10090000A2F13007092F40F2AB809DF838201091FA
:10091000C2F3400040EAD17161F341028DF8382002
:100920005CE0AA1C02928DF83B309DF83930DF075D
:1009300040F1738154F804BBBBF1000F07DA9DF856
:10094000382042F004028DF83820CBF1000B580714
:1009500040F16C8154F8048BB8F1000F80F26B8188
:100960009DF839306FF341038DF839304FF0FF387F
:1009700061E12D2B0DD0302B7FF46AAF012259E7B6
:100980004FF0010C56E74FF0010853E74FF0010E0E
:1009900050E701274EE70CFB0272303A0346184637
:1009A00010F8017BA7F1300EBEF1090FF3D999427F
:1009B00090D09DF838100F92D20F62F341018DF85C
:1009C000381087E70B4600224FF00A0CE7E79DF846
:1009D000392042F004028DF839200233194611F80B
:1009E000012B6C2A5CD040D8682A46D06A2A61D094
:1009F0004C2A67D019460B4613F8012B0293782A2C
:100A00008DF83B2000F2DF80572A68D8412A04D0B5
:100A1000A2F14503022B00F2D6809DF83A3002F095
:100A2000DF020421A2F1410861F30203D8F10002C0
:100A30009DF839108DF83A3042EB080262F3C71185
:100A40000A068DF83910CBB200F1E58003F0780288
:100A5000182A40F0B5806FF3C6038DF839309CE05A
:100A60000CFB01213039034647E7742A26D07A2A45
:100A7000C0D19DF8393006220DE05A78682A9DF8D9
:100A8000392006D1012161F3C6028DF83920991C65
:100A9000B1E71346022262F3C6038DF83930AAE7A4
:100AA0005A786C2A9DF8392001D10421EBE71346CE
:100AB0000322F0E79DF839300522ECE79DF8393044
:100AC0000722E8E7BDF8383023F4F04323F00203AF
:100AD00043F4804343F00203ADF838308BE7A2F1D2
:100AE0005803202B6FD801A151F823F09F0B000071
:100AF000C70B0000C70B0000C70B0000C70B0000AE
:100B0000C70B0000C70B0000C70B0000C70B00009D
:100B10001B0A0000C70B00009F0B0000710B0000B8
:100B20001B0A00001B0A00001B0A0000C70B000084
:100B3000710B0000C70B0000C70B0000C70B0000C3
:100B4000C70B0000D50B00009F0B0000F90B000045
:100B5000C70B0000C70B0000F90B0000C70B00001B
:100B60009F0B0000C70B0000C70B00009F0B00008D
:100B70009DF83A30012161F302038DF83A309DF877
:100B8000393003F07803402B02BF9DF8381041F054
:100B900001018DF83810632A05D0002306E09DF886
:100BA0003A300221E7E7003B18BF01239DF83820C7
:100BB000C2F340010B4363F341028DF83820B4E6E1
:100BC00013F0380FE9D09DF8383043F001038DF869
:100BD0003830E2E79DF83A30032262F302038DF8E1
:100BE0003A309DF8393003F07803A3F1400CDCF182
:100BF000000343EB0C03D9E79DF83A30032262F37C
:100C000002038DF83A309DF8393013F0780F14BF95
:100C100001230023CAE70123C8E79DF93820002AF1
:100C2000B4BFDDF83CB04FF0FF3B90E699077FF58D
:100C30009DAEDDF840809DF839100023CDE90F33DB
:100C40009DF83A3003F00702042A09D18A0707D435
:100C50009DF93920002AB4BF4FF00D084FF0060867
:100C600003F00703012BC1F3C30137D1CB1E042BC3
:100C700021D8DFE803F003090920200054F8043BE1
:100C8000DA17CDE90C3206E0073424F00704F4E863
:100C90000223CDE90C239DF83870BB0756D0029B88
:100CA0002A465146484604F08EFD0028C0F297833C
:100CB0000644029DA0E554F8043B01294FEAE37283
:100CC000CDE90C3205D19DF830300C9300230D9303
:100CD000E1E70229DFD1BDF93030D1E7022B23D182
:100CE000CB1E042B13D8DFE803F0030A0A1212000C
:100CF00022680C920023201D0D930446CBE7E01DD3
:100D000020F00700F0E80223CDE90C23F5E754F8C2
:100D1000043B0C9301294FF000030D93D3D002291B
:100D2000B9D1BDF83030D0E7042B09D1E31D23F051
:100D3000070303F10804D3E90023CDE90C23AAE754
:100D4000032B04BF54F8043B0C93A4E79DF83B200D
:100D5000782AAED8572A00F28C80252A00F0D48059
:100D6000242AA6D9412A03D0A2F14503022BA0D8F8
:100D7000DDE90C13002BC0F2BE81380700F1BD8104
:100D800017F0100718BF2027C3F30A55C3F3130346
:100D9000CDE90813002D40F0B28151EA030014BFE1
:100DA00001200020DB0243EA5153C902462A45EAEA
:100DB000010E43EAE57C08BF66225EEA0C0CCDE931
:100DC000081300F00682002840F0CE81DDE908011A
:100DD0004FF0000C41F00041A5F2FE350991634649
:100DE0004FF0050E15F1020FC0F2C581BCF1000FE6
:100DF00001D0CDE90801002DDDE9081000F3D08114
:100E000009980899C5F1040C1C3500FA05F5ACF1F8
:100E1000200E21FA0CF120FA0EFE294341EA0E01C0
:100E200020FA0CF0CDE9081002F0DF01472940F06C
:100E3000D781DD1C02DB984580F2CE81023AB8F101
:100E4000000FD2B201DD08F1FF389DF83810880696
:100E500000F1C681B8F1000FD4BF00210121662A3C
:100E6000039140F0BF8118EB030540F1BD810025DF
:100E7000BDE1A2F15803202B3FF61BAF01A050F8B3
:100E800023F000BF99100000B30C0000B30C000069
:100E9000B30C0000B30C0000B30C0000B30C000056
:100EA000B30C0000B30C0000710D0000B30C000087
:100EB000350F000039100000710D0000710D0000A9
:100EC000710D0000B30C000039100000B30C0000DD
:100ED000B30C0000B30C0000B30C0000CF100000F6
:100EE000991000009D100000B30C0000B30C00002E
:100EF0000F0F0000B30C000099100000B30C0000AD
:100F0000B30C000099100000514610467EE4B8F181
:100F1000000F0C9A09DB41461046039204F090FC46
:100F2000039A0027151862B9C3E61046039204F02D
:100F300080FCF5E70C9B8DF84C3000270DF14D053A
:100F400013AAAB1A07B101339DF83A00C10640F16C
:100F50003A8202330F9940060B4444BF10995B1844
:100F6000BBF1000F23DDABEB030B9DF838305907C5
:100F7000C3F380081BD4580640F13482002F00F0E0
:100F80003482514638460392C8470028C0F227826F
:100F9000039A474601364FF030085E445B46002B0B
:100FA000A6EB0B000BF1FF3B00F31182064647B1A5
:100FB000514638460392C8470028C0F21082039A6F
:100FC00001369DF83A30590640F165829DF9393075
:100FD000002BA6EB02030393C0F20A82174638786F
:100FE000039BA0F13002092AB84603EB070607F17C
:100FF000010740F229829DF83A200F9F930608D4FA
:101000003E44002FA6EB070307F1FF3700F32282CF
:101010001E4698F800002E280BD15146C8470028DC
:10102000C0F2DD81002F06F1010600F31A8208F1FB
:101030000108A6EB08061DE23D072BD417F01007A8
:1010400018BF2027DDE90C23002B05DA524263EBA1
:101050004303CDE90C232D270DF1650300930EAA60
:10106000DDE90C0113AB04F068FB0246B8F1000F98
:101070000DF16505FFF657AF9DF83810AB1A6FF309
:10108000861198458DF838107FF64DAFA8EB030315
:101090000F9348E72B27D5E70027DDE70C980028BA
:1010A00000F08D810DF1650300930EAA13AB0021B2
:1010B00004F043FBBDF83A3003F0EF0343F4F04390
:1010C00043F010030246ADF83A300027CEE70C9B00
:1010D00007293FF6EEADDFE801F00C04060C080826
:1010E0000C0C1E70E5E51E80E3E5F217C3E9006213
:1010F000DFE51E60DDE52D2746E62B2744E640F2BE
:10110000FF7085422DD10B43A2F141021BD1192A58
:1011100011D849238DF84C304E238DF84D3046239D
:101120008DF84E309DF838306FF386138DF83830D7
:101130000DF14F0504E769238DF84C306E238DF8CF
:101140004D306623ECE7192A99BF4E2341226E23C6
:10115000612294BF8DF84C308DF84C308DF84D20C5
:10116000DEE700201EE6013D49185B41002BFADA5C
:10117000CDE908132AE6400840EAC1704908B1F1F8
:10118000333FAC4605F10105F5D20EFB01F5A0FB9E
:101190000E012944013B0CF102054FF0010C21E640
:1011A000023140F10000CDE9081008A8CDE9032381
:1011B00004F094FA049B039ADDE90810013D013321
:1011C00049184041002805F1FF35F9DACDE908104A
:1011D00011E600231D4613E6A8EB0308662234E659
:1011E00000213CE608F10105102DA8BF10251021B3
:1011F000079100204FF00061CDE90A01DDE90A10F6
:10120000A5B9089D4919099D40EB0505B5F1805F19
:101210001BD2CDE90815662A40F09980002B23DC0B
:1012200030218DF84C100DF14D052FE0490841EAB1
:10123000C0714008CDE90A100AA8CDE90423013D98
:1012400004F04CFADDE90423D8E7490841EAC57106
:1012500008A86D08CDE90423CDE9081504F03EFA8D
:10126000059B049A0133D6E713AD079900290BDDDE
:1012700007A908A8CDE9042304F048FA059B05F85E
:10128000010B013B049AF0D10F9300239DF8381015
:10129000890602D4B8F1000F1DDD2E2105F8011BCF
:1012A0009BB1B8F1000F16DD59424145A8BF414638
:1012B0009DF83A000F910029A8EB0108D4BF002146
:1012C000012161F345108DF83A00B8F1000F02DDFD
:1012D0000799002956DC0399002963D1CDF8408095
:1012E00002F0DF01452921D1002B2946B8BF5B421E
:1012F00001F8022BB4BF2D222B22632B6A7009DD6B
:101300006420B3FBF0F202F1300CE91C85F802C056
:1013100000FB12330A200D46B3FBF0F200FB123340
:1013200002F1300C303305F802CB4B700F9B002BD1
:1013300043DC109B002BD4BF002301239DF83A20EF
:1013400063F3861200238DF83A202B70F8E507A985
:1013500008A8CDE9042304F0D9F9DDE904239DF8B8
:1013600038108DF84C00302818BF03F1FF33880681
:1013700002D4B8F1000F12DD2E218DF84D100DF1C1
:101380004E05A2E707A908A8CDE9042304F0BEF999
:1013900008F1FF38DDE9042305F8010B95E70DF1AD
:1013A0004D0598E700211091284615F8011D3029B8
:1013B000FAD02E2918BF054692E70123BEE74B4D10
:1013C00007466A1FBDE5010748BF0133C2E5514624
:1013D00040460392C8470028039ABFF6DFAD1BB012
:1013E000BDE8F08F4FF02008D7E54FF03008D4E586
:1013F0009046039B4746434418F8010B70281ED1C2
:101400001E46109B03EB0608A8EB0603002B3BDCF3
:101410002B463A465146484604F0D5F90028DEDB13
:10142000304406468344ABEB0603002B7FF741AC08
:1014300051462020C8470028D1DB0136F3E751464A
:10144000C8470028D5DACAE75146C8470028BFF682
:10145000C6ADC4E751463020C8470028BFF6D1AD1D
:10146000BDE751463020C847013FD8E55146C8473F
:101470000028B4DB474606EB080318F8010BA0F17F
:101480003002092AF2D9BBE751463020C84700286C
:10149000A5DB0136B8E7D80601D4190707D55146B0
:1014A00030200392C847002899DB039A01369DF843
:1014B0003A30DB0608D59DF83B0003925146C847F9
:1014C00000288CDB039A01360F9F3744BB1B002B8F
:1014D00001DC2B469EE7514630200392C847002886
:1014E000FFF67DAF039A0136F0E700BFDC6800002D
:1014F00008B54FF02002EFF3118382F31288BFF397
:101500006F8F00F019FE034804F026F800F032FA5D
:10151000FCE700BFDD6800002DE9F84305464FF009
:101520002003EFF3118683F31288BFF36F8F0E4B06
:101530001C689CB10D4FDFF838804FF00C09D4E9DE
:101540000132002D08BF13462BB198F8142009FB77
:1015500002F2B85C98472468002CF0D186F3118819
:10156000BFF36F8FBDE8F8833004002038040020FB
:10157000100B00204209012300F01F0003FA00F0C5
:10158000074BBFF35B8FC04303EB820353E8002F8D
:10159000024043E800210029F8D1BFF35B8F704778
:1015A0004404002038B51A4B1C7DBFF35B8F04F058
:1015B0001F0301229A40174B6109D04303EB8103BB
:1015C00053E8001F01EA000543E8005CBCF1000F8E
:1015D000F6D1BFF35B8F114213D00F4B0F4D8BB180
:1015E0000C236343EA18E85C517804F055F90020B5
:1015F000FFF792FF0C235C432A1900232B51C2E909
:10160000013338BD83F31188BFF36F8FEFE700BF5D
:10161000100B0020480400209958000038040020D6
:101620002DE9F843324B334A1C7DBFF35B8F6309CE
:101630004FEA830952F823302F4EBFF35B8F04F03B
:101640001F0843FA08F313F0010F07460AD10146B9
:10165000204600F069F828B107C80C2303FB046397
:1016600083E807000C236343F218F55C2DB920468C
:10167000FFF780FF2846BDE8F8837B1C0FD0D2F827
:1016800008C01E481E4A4FF4004500210023ECFB11
:101690000501FEF735FD0121381A04F011FE03F0B3
:1016A000F3F80120FFF738FFBFF35B8F012303FA44
:1016B00008F8144B994459E8003F43EA080349E805
:1016C0000032002AF7D1BFF35B8F0F4B33B10C23ED
:1016D0006343F218F05C517804F0D2F8FFF762FF30
:1016E0002046FFF747FF03F09FFA0120C3E700BF42
:1016F000100B002044040020380400203F420F005B
:1017000040420F004804002081580000054BBFF301
:101710005B8F53F82000BFF35B8F003818BF0120A8
:10172000704700BF4C0400202DE9F04F85B00F46F4
:1017300003A900F047F8DFF88080DFF880A0441E9E
:1017400024B24FF0000B631C04D10026304605B0D4
:10175000BDE8F08F039A04EB440302EB830612F812
:101760002300FFF7D3FF054610BB70684FF4004914
:10177000C4462946E0FB09C152465B466046FEF777
:10178000BFFC0190B068C4462946E0FB09C15B4636
:1017900052466046FEF7B4FC094B1B68591C01D049
:1017A000834205D97A1CD1D0019B1844B842CDD9C7
:1017B000013C24B2C7E700BF3F420F0040420F0088
:1017C0000400002008B9024B0B600020704700BFE6
:1017D000B8650000014803F0EFBC00BFB865000029
:1017E00010B5044618B90D4B0D485B689847616801
:1017F00008290DD031F004030AD011F0020108D0FD
:101800000848214604F04FFC002323600023636056
:1018100010BD2068142204F027F8F7E70801002023
:10182000066900006804002008B508B34368042B6B
:1018300010D101220368BFF35B8F53E8001F00291A
:1018400003D143E800200028F7D1BFF35B8F0BD111
:10185000002008BD53B100684FF0FF324FF0FF3356
:1018600002F0B8FE0028F3D00348F2E70348F0E79F
:101870006FF4E040EDE700BFE98FFFFFEA8FFFFF65
:1018800008B5D0B14368042B11D100220368BFF31F
:101890005B8F53E8001F012903D143E80020002893
:1018A000F7D1BFF35B8F074808BF104608BD3BB1B7
:1018B000006802F007FF0020F8E76FF4E040F5E76A
:1018C0000148F3E7E98FFFFFEA8FFFFF10B50446F9
:1018D00018B9164B16485B6898476368042B23D0E9
:1018E000082B21D0CBB92368BBB912484FF0FF3287
:1018F0004FF0FF33214602F069FD08B923681BB998
:101900000A4B0D485B68984720681422002103F0B9
:10191000ABFF636843F002036360206804F001FCDE
:10192000636843F00103636010BD00BF080100203D
:1019300006690000680400202C69000008B506490B
:1019400006484023142204F093FBBDE808400449F4
:10195000044803F091BC00BF840400206804002008
:10196000D0650000C0650000014910220A60704780
:1019700010ED00E072B6404080F31188BFF36F8F26
:10198000BFF34F8F30BF62B6BFF36F8F704700BF9A
:1019900072B6494081F3118820BF80F3118862B686
:1019A000704700BF43B2002B08DB012200F01F008C
:1019B00002FA00F05B09024A42F82300704700BFB8
:1019C00000E100E0054B420900F01F0053F822201F
:1019D000012303FA00F01040704700BF00E100E06F
:1019E00043B2002BA8BF03F1604301F10101B8BF6E
:1019F000064B4FEA4111ACBF03F5614300F00F0005
:101A0000C9B2B4BF195483F80013704714ED00E055
:101A100030BFFFF7FDBF00BF0B4A08B50B4B22F0EC
:101A20007F029A60BFF34F8FBFF36F8FD3F8882088
:101A300022F47002C3F8882002F0F8FB03F016FAD3
:101A400000F0D0F902F036FC0000000000ED00E0EC
:101A5000094A0A49936809689967094958674B68B0
:101A600043F080534B60002383F31188BFF36F8FE3
:101A70009368986F704700BF100B002060670000EC
:101A800000ED00E012498A684FF030001044EFF397
:101A9000098C80E8F01F202080F31288BFF36F8F3D
:101AA0000C4F4FF00066CA698A603E60506F002399
:101AB000536780F3118804B5104600F04DFABDE875
:101AC000044002F1300090E8F01F8CF30988704761
:101AD000100B002004ED00E01EF0040F0CBFEFF32C
:101AE0000880EFF30980816911F8021C0229FFD0F8
:101AF00001B503F085FE01BD42F8203C009B42F891
:101B00001C3C0A49019B42F8183C029B42F8143CD9
:101B100021F001014FF0807342F8043C42F8081CA8
:101B20000023203A02654367704700BFC956000092
:101B3000094A0346906870B113F1160F406E05D044
:101B4000A0F120029A4205D8834203D2814228BFE5
:101B50000020704700207047100B002008B5094B8B
:101B600098600D46144600F0F7F9204685F3098881
:101B7000002163B681F31188BFF36F8F0022002329
:101B800003F0A2FD100B002001B572B60B4A90695C
:101B900000281EBF0021916104F0B4FA62B6EFF391
:101BA0000580A0F110004FEAC0000549014409C9B1
:101BB0009847BDE80140034908470000100B00208A
:101BC0000C640000C91B0000044B9968D869884266
:101BD00003D003494FF080520A607047100B002079
:101BE00004ED00E038B51C4B14469A6A9A6A9A6A6A
:101BF0000546900720D5586B9A6A12061CD519B174
:101C00009A6A22F080029A629A6A9A6A9A6AD2065C
:101C100015D49B6A9B0712D400200F4B9A6A920638
:101C200042BF5A6A22F400525A629A6A42F0FF0294
:101C30009A620023237038BD6FF01500E4E7064B6D
:101C40005B681905E8D52946FFF772FF0028E3D045
:101C500080F309880220E0E700ED00E00D4B9A6A6E
:101C60009A6A9A6A920508D59A6B9A6A120404D500
:101C700018B19A6A22F400429A62064B9A6A9A6AEA
:101C8000D20558BF9A6A9A6A002042F47F429A624B
:101C90000870704700ED00E070B5484B5B688AB093
:101CA0000D46C3F30803002686F31188BFF36F8F38
:101CB00002F07F41B1F17F4F11D102F00C010829F0
:101CC0000DD0110701D4054601260022033B8DF8F3
:101CD0000720032B6BD8DFE803F00455595D354628
:101CE000F3E7364BDC6A14F0020460D1DA6A002AAA
:101CF00015DBDA6A520012D5AA6932F8021C4DF6D9
:101D0000027291420AD093F828200AB30DF107021B
:101D100001212846FFF766FF044600E02C689DF885
:101D200007309BB92022294602A803F092FD099BA7
:101D3000002E3ED0C3F3080222B96FEA53236FEAA4
:101D40004323099302A9204603F058FD0AB070BD51
:101D500093F829202AB10DF107010120FFF77EFF3A
:101D6000DAE75A8D92B2002AD9D09A6A9A6A9A6AA8
:101D70009A6A9A6A9A6A9A6A6FEA02426FEA124209
:101D80009A62CCE70DF107020021C2E70DF10701CD
:101D90000020E3E7094B9A6A9A6A9A6A9A6A9A6AF1
:101DA0009A6A9A6A6FEA02426FEA12429A620024C1
:101DB000B5E723F4FF7323F00103C2E700ED00E071
:101DC000024A536943F010035361704700ED00E08D
:101DD000EFF30880EFF3098101B57246FFF75CFF6E
:101DE00001BD00BF044800232021C2180133302B5D
:101DF00082F80013F9D1704700E100E0002080F381
:101E00001488BFF36F8F04F07FFA00200D4908603B
:101E1000BFF34F8F0C4880F3088800F02BF8202088
:101E200080F3118809484FF40261401880F3098853
:101E3000EFF314800221084380F31488BFF36F8FFF
:101E4000FFF7EAFD94ED00E0801D0020001F002058
:101E50000749D1F890200023C2F307221846934285
:101E600000D17047C1F89830C1F8A0000133F6E7FF
:101E700000ED00E008B572B6002383F31388FFF786
:101E8000E7FF144B4FF0FF32C3F88020C3F88420E3
:101E9000C3F88820C3F88C20C3F89020C3F894209E
:101EA000C3F89820C3F89C20C3F88021C3F884218C
:101EB000C3F88821C3F88C21C3F89021C3F894217A
:101EC000C3F89821C3F89C2162B6BFF34F8FBFF3CC
:101ED0006F8F08BD00E100E0084B9B6883420BD187
:101EE000EFF3058343B1064B5A6842F080525A60C3
:101EF0005A6A22F400425A6202F066BF100B0020B8
:101F000000ED00E0074AD2F8FC3043F08073C2F8DD
:101F1000FC30054B00225A601A6842F001021A6038
:101F2000704700BF00ED00E0001000E0034B00220E
:101F30005A601A6842F001021A607047001000E00F
:101F4000024B034A0348012100F06EB80000042050
:101F500000000020E4650000426E054B203A1A6044
:101F6000044A2021C3E901121846012100F066B895
:101F70008409002000000B15F0B51F4F00268E428B
:101F800001DB1046F0BD44689CB353B104F1FF3C43
:101F900014EA0C0F18D11F2C16D905681CEA050F7E
:101FA00012D1202C0568D0F808C0D2B20FD9B4F1F4
:101FB000004F0ED8013CB4FA84F4C4F11F0464004D
:101FC000072A4CEA040406D96FF01502D9E7082461
:101FD000F6E73E24F4E725F01F05154345F010050C
:101FE00044F00104C7F89820C7F89C500132C7F8A4
:101FF000A04001360C30C2E700ED00E0044B0522A2
:10200000C3F89420BFF34F8FBFF36F8F704700BFAB
:1020100000ED00E0BFF35F8F024B0022C3F8942075
:10202000704700BF00ED00E010B5034C012322789B
:10203000FFF7A2FF207010BD210D002008B5094A4E
:1020400000231278FFF798FF10F1160F02D0064A0E
:10205000072800DD08BDC2F89800C2F8A0300130A2
:10206000F6E700BF210D002000ED00E014490868EC
:10207000082810B521D8FFF7CDFF124C496800227F
:10208000904201F10C0105D10F4B1870FFF7B6FF1C
:10209000002010BDC4F8982051F80C3C23F01F0319
:1020A000134343F01003C4F89C3051F8043C43F050
:1020B0000103C4F8A0300132E2E74FF0FF30E8E757
:1020C000F065000000ED00E0210D0020014B1860DC
:1020D000704700BF2800002010B54FF02003EFF339
:1020E000118083F31288BFF36F8F114A0123C2F866
:1020F00040354FF080424FF08051C2F87835D1F82A
:102100003041082C08D1D1F83411052904D8094CE4
:10211000615C09B1C2F838364FF080430122C3F840
:10212000802580F31188BFF36F8F002010BD00BFA2
:1021300000E00140686900004FF08043C0B2C3F87E
:102140001C05BFF34F8F0549054BCA6802F4E062D6
:102150001343CB60BFF34F8F00BFFDE700ED00E0FE
:102160000400FA0520B1034B800143F00103184736
:10217000704700BFB065000010B5044C23781BB950
:10218000FFF7C0FE0123237010BD00BF220D002009
:10219000074BBFF35B8F53E8002F511C43E800103F
:1021A0000028F8D1BFF35B8F0AB9FFF7BFBE7047B5
:1021B00090090020084B70B5C31A0D4607499B10C3
:1021C000044659430648402203F088FB2B4601464B
:1021D0002046BDE870401847A4090020B76DDBB663
:1021E0007C63000073B50C4C0C4A4023041B009325
:1021F0000D460B460A49A41061430646094803F000
:1022000099FB011E05DA30462B4602B0BDE870404E
:10221000184702B070BD00BFA4090020A5590000F6
:10222000B76DDBB67C630000002270B50121044667
:102230001046FFF7D5FB0F4801F034F90E4B9842DA
:1022400015D103F08CFD26690C49304603F0E0F906
:1022500000280BDB246909490125356404F11C00C1
:1022600003F0D6F9002801DBE564002070BD6FF0B3
:102270000400FBE7B52200000000AD0B386600004B
:1022800001460C2309484B4370B5C418D4E90E56D7
:1022900000224033A263184403F00DFB2DB13246F7
:1022A0002B460348BDE87040184770BDA4090020C4
:1022B0007C63000010B1012804D07047034B1B6CF5
:1022C0005B0701D1FFF7DCBF704700BFA409002006
:1022D00008B54FF02003EFF3118183F31288BFF3A9
:1022E0006F8F124A136843F0020013F0010310606D
:1022F0000CD04FF08042D2F80C34D2F80C2413F0FA
:10230000010303D00A4803F0D6FA012381F31188B0
:10231000BFF36F8F23B1BDE808400020FFF7B0BFC7
:10232000BDE80840012003F027BD00BFF4090020EC
:10233000E40900201FB500220123CDE90223094A48
:10234000CDF800D06B46CDF804D003F024FB002874
:1023500005DB4FF480420023684602F015FA05B011
:102360005DF804FBC3590000094BBFF35B8F53E8D2
:10237000002F22F0020143E800100028F7D1BFF33C
:102380005B8FD30702D4012003F033BD704700BF39
:10239000F40900202DE9F0413949BFF35B8F07466E
:1023A000012251E8003F41E800200028F9D1BFF3A5
:1023B0005B8F33B9334934484B60CB608A6003F09C
:1023C0003AF97B1E012B2FD8012F07D14FF0804304
:1023D000D3F81C3403F00303012B25D003F08CFE4B
:1023E000044618B9294B1B78002B41D14FF020032C
:1023F000EFF3118683F31288BFF36F8F0124DFF8A8
:1024000090804FF08045D5F81834D5F81824D203C1
:102410000CD503F00303012B01D0012F06D10CB31F
:1024200086F31188BFF36F8FBDE8F081ACB1304601
:10243000FFF7AEFAD5F81835002BE4D1D5F8042112
:10244000002AE0D0C5F80431D5F804310123C5F8DD
:102450001835C8F88031AB60D5E70021212002F0A3
:1024600093FCE7E74FF080430222C3F80423DBE745
:102470004FF080430222C3F808230646BFE700BF9F
:10248000F809002094090020C00900203311002021
:1024900000E100E008B5084B0848186003F0BFFDF4
:1024A00038B10748FFF712FE0548FEF7A9F80020EB
:1024B00008BD6FF01200FBE7FC090020DC630000A0
:1024C000C52400000A2838B5074D044604D1286801
:1024D00083680D215B68984728688368E1B25B6870
:1024E0009847204638BD00BFFC09002030B5406841
:1024F000047B01F01F05B2F5001F45EA441585B0C5
:102500004FF0000404D1284601F04EFA002032E0DA
:10251000B2F5800FCDE902442FD1B3F1007F0CBF9B
:10252000042305238DF80830836823FA01F1C907D5
:102530002FD4B2F1A07F2CD16A09012A05F01F0324
:102540001C4A03F5E07318BF4FF0A04252F8233045
:10255000DB071ED40DF107042146284601F088F957
:10256000154B984214D1204601F0D0F9134B9842F4
:102570000ED06FF00B0005B030BDB3F1C06F05D0C9
:10258000B3F1007F0CBF02230123CBE70323C9E78C
:1025900003940023194602AA284601F043F8074B8A
:1025A000984204D10121284601F0B6F9AEE76FF058
:1025B0000400E0E7000300500400AD0B0000AD0B89
:1025C00010B501F093F9044668B901F067F9084BBA
:1025D00098420AD10748214601F044F922460521D4
:1025E0000620FFF7FDF9002010BD6FF00400FBE7A7
:1025F0000000AD0BF9250000420970B5034602D07A
:10260000012A15D070BD0B4E326951680029F9D0EE
:1026100003F01F0301250C689D408A682A4002D000
:102620004B6830469847002CECD021462468F4E7EC
:10263000014EE9E794630000AC6300002DE9F0432C
:1026400047683B7B01F01F0585B00E4645EA431500
:102650001446CAB902A9284601F00AF904462846D8
:1026600001F0CAF94A4B984204D06FF0040005B05B
:10267000BDE8F083844205D19DF8080001F040F9DF
:10268000A042F2D10020F2E74FF000090DF1030162
:102690003046CDE9029901F0EBF84B46804602AA9C
:1026A0004946284600F0BEFF394B984202D06FF0F1
:1026B0001500DCE7804503D19DF8030001F020F907
:1026C000A30351D540F20663234040F20622934211
:1026D0003BD00CD8062B15D004D89BB1022BE6D1E9
:1026E00004230FE0B3F5007FE1D101230AE040F2BB
:1026F000024293422BD0B3F5C06F2AD0B3F5806F5E
:10270000D5D102238DF8043084F48033C3F3004321
:10271000E0068DF8053054BFC4F3401303232103B2
:102720008DF8063017D57B68012101FA06F6C3F84B
:102730000865002201A9284601F022F8144B9842AE
:1027400014BF6FF01500002091E70723DAE7052397
:10275000D8E70323D6E7620341BF7B68012101FA72
:1027600006F6C3F80C65E4E7E3064FF0000354BF38
:10277000C4F3401403241A4601A928468DF80440E6
:1027800000F050FF024B98423FF47CAF8FE700BF50
:102790000000AD0B08B54368D3E9020101F072FCFB
:1027A000034B984214BF6FF00F00002008BD00BF1C
:1027B0000000AD0B37B50446002201210320FFF7CE
:1027C0000FF963689D6901AA0021284603F0F0F91A
:1027D000002814DB019B2A681979186803F005FAB0
:1027E00000280CDB60682369064A00F1080101F04B
:1027F000E3FA054B98420CBF00206FF00F0003B0C6
:1028000030BD00BF0D2800000000AD0B0378012B88
:1028100008D0022B08D04BB9054B0B6201F1100018
:1028200001F092BF034BF8E7034BF6E7034BF4E7E5
:102830000000AD0B0100AE0B0200AE0B0100AD0BB2
:102840002DE9F04F0C4689B0174699464568066950
:102850004FF0FF324FF0FF33304601F095FF06F1A5
:10286000100A00220023504601F08EFF284601F096
:1028700001FBDFF8BCB04FF00008B84501D30024DD
:102880002BE0237A019313F008014BD1142203A803
:10289000009102F0E9FF019B6068049003F00102DF
:1028A000206800998DF80C2013F0020F8DF80D9020
:1028B00006901CD17B1E434502D9237D5B0718D5AA
:1028C00082BB202203A9284601F002FB584512D002
:1028D000184B984229D06FF00404284601F0DAFA28
:1028E000304601F031FF204609B0BDE8F08F0A46BE
:1028F000E8E74022E6E74FF480420023504601F02B
:1029000043FF38B1284601F0C5FAD5E9020101F0CC
:10291000B9FBE0E7336A5B4504F10C04DBD108F155
:102920000108AAE76FF08504D7E76FF00F04D4E73A
:102930000000AD0B0B00AD0BF0B54B79012B26D091
:10294000032B21D110268B79032B1DD1CC790CB10F
:10295000012C19D10A7912B1022A15D10E220B6865
:102960004568B3F5164F2D6865D02DD8B3F5165FC1
:1029700064D016D8B3F5966F62D00AD8B3F5967FB7
:1029800061D0B3F5167F61D06FF0850052E000266C
:10299000D9E7B3F5166F5CD0B3F5965FF4D1374B3A
:1029A0003CE0B3F5E14F57D007D8B3F5615F55D0A0
:1029B000B3F5964FE8D1324B30E047F61227BB42D1
:1029C000E2D14FF4000329E0B3F5613F48D013D8BA
:1029D000B3F5963F47D009D84DF6C027BB4244D047
:1029E000B3F5614FD0D14FF46B0317E0B3F5E13F7E
:1029F000CAD14FF0EB7311E0B3F5612F38D008D88E
:102A0000204FBB4237D0B3F5E12FBDD14FF0E86383
:102A100004E01D4FBB42B7D14FF080530069C5F8A9
:102A20002435031D03C934432243C5F86C2583E8CC
:102A300003000020F0BD4FF41D03EFE7134BEDE75B
:102A40004FF49E23EAE74FF4A033E7E74FF41C333B
:102A5000E4E74FF41D23E1E70D4BDFE70D4BDDE726
:102A60004FF06C73DAE70C4BD8E74FF46503D5E70A
:102A70004FF07063D2E74FF08063CFE700B01300F0
:102A800000A04E0090D0030040420F0000502700ED
:102A900000C0750000F03A0000903A012DE9F743BC
:102AA000D0F804800669D8F80040D8F80C900021CE
:102AB000C4F800150746306001AA484603F078F8CC
:102AC000051E56DB019BD9F800201979186803F020
:102AD0008CF8051E4DDB311D3846FFF72DFF0546EE
:102AE000002846D1D8F80430990719D506F112000C
:102AF00001F07CF8224B98423FD1B07CC30003F137
:102B0000804303F5F83304F10C0204F59071C3F827
:102B10001015C3F814251B4A01238340C2F804355D
:102B20000823C4F8003598F808305BB9C4F81031B0
:102B3000D4F8103106F11103C4F834350123C4F878
:102B400038352360D8F804309A075CBF4FF48072A0
:102B5000C4F80423DB0644BF4FF48003C4F80433F5
:102B600010360023C4F84465C4F848350123A36037
:102B7000E360284603B0BDE8F0836FF00405F8E792
:102B80000000AD0B00F00140F8B5066905460F46A0
:102B900003F0B2FA10B92C4B1B7883B94FF0200325
:102BA000EFF3118483F31288BFF36F8F686802F02C
:102BB00097FF28BB84F31188BFF36F8FEEE764247F
:102BC000686802F08DFF70B9012003F0C6F8013C7F
:102BD000F6D10021212002F0D7F8F0E784F3118824
:102BE000BFF36F8FF5E74FF02003EFF3118483F30A
:102BF0001288BFF36F8F686802F072FF0028EDD073
:102C000006F8107F69680B680122C3F84465C3F8B1
:102C100048250022C3F82021D3F82001C3F8582109
:102C2000D3F858214A68D20641BF0822C3F80025CC
:102C30004FF48002C3F8042301229A6084F31188C0
:102C4000BFF36F8FF8BD00BF3311002010B5012313
:102C50008340114ABFF35B8FDC4352E8001F01EA57
:102C6000040C42E800CEBEF1000FF6D1BFF35B8F3B
:102C70004FF4803202FA00F002F1804202F58052F5
:102C8000C2F80803BFF35F8FBFF36F8F0B4214BF0F
:102C90000120002010BD00BF1C0A00201949F8B512
:102CA000044622F07F450868C1E90023A5F500131A
:102CB000101AB3F5400F22D2134B1B681A0A1B06D9
:102CC0005E19124B42F10007C3E90067012602F0CA
:102CD000ABF9A30003F1804303F58833D3F8402513
:102CE000AA420BD11EB94FF40002C3F84025084B8D
:102CF0004FF4803000FA04F4C3F84443F8BD0026D2
:102D0000E5E700BFE8020020200A0020D0020020F2
:102D10000010014019B3BFF35B8F0123104A8340B9
:102D200052E8001F194342E8001CBCF1000FF7D124
:102D3000BFF35B8F0B4A4FF480338340C2F80433F8
:102D4000094BBFF35B8F1B68BFF35B8F23FA00F067
:102D5000C30742BF054B4FF40032C3F80021704750
:102D60001C0A002000100140180A002000E100E0C9
:102D70000D4B1868010A0006BFF35F8F0B4BD3F8A9
:102D80000435181841F10001B3F5801F0AD2084B31
:102D9000D3E90023904271EB030303D210F180705A
:102DA00041F10001704700BF200A002000100140DF
:102DB000D00200202DE9F04F85B016469846054612
:102DC000FFF744FF0090FFF7D3FFB04271EB080319
:102DD00078D2464B301A68EB0101984271F100033A
:102DE00080F08180424B03EB0513D3E902ABD84559
:102DF00008BF564551D04FEA850909F1804905F1D0
:102E0000500709F58839BF004FF4803101FA05F306
:102E1000BFB226F07F4207F180470193D9F8400501
:102E2000344B07F588371446D3F80415401A20F0C0
:102E30007F4021F07F4C0128C9F840C507D1CDE97A
:102E40000221132003F05CFADDE90221294B01F194
:102E5000020CA4EB0C0020F07F40B0F5000F88BFFF
:102E600064460020386038680198C3F8440324F0B1
:102E70007F40C9F84005D3F80405814206D0201AE6
:102E8000023820F07F40B0F5000F19D8A41A24F0C2
:102E90007F4414EB060A48F1000B15490E982B01EC
:102EA00001EB0512C2E902ABC8500F9B536000242E
:102EB00028460099FFF72EFF204605B0BDE8F08FA9
:102EC0002046B1E701230C4ABFF35B8FAB4052E8C9
:102ED000001F194342E800100028F8D1BFF35B8FB0
:102EE000B246C346D9E76FF01504E1E701000001DF
:102EF000D802002000100140180A002073B5194BB9
:102F0000194D00244FF0FF304FF0FF31C5F8084550
:102F1000C3E902014FF48033C5F80433134B022692
:102F20004FF400320121C5F804631120C3F8802159
:102F30002246FEF755FD1120FEF734FD0C4A012311
:102F4000AB602B6013600B4B0B4A00930194002382
:102F50002046FFF72FFF3046FFF71CFA204602B04D
:102F600070BD00BFD80200200010014000E100E069
:102F70001C0A00209D2C0000FFFF7F002DE9F74375
:102F8000354CD4F804339A070BD5D4F8043143B147
:102F9000324A0023C4F80431D4F8043113680133F1
:102FA00013604FF02003EFF3118283F31288BFF315
:102FB0006F8FD4F80433DB0312D5BFF35B8F284B3C
:102FC00053E8001F21F0010043E80006002EF7D16E
:102FD000BFF35B8F002936D1D4F84031002B32D1BA
:102FE000002382F31188BFF36F8F4BB3FFF7C0FE4E
:102FF0004FF02003EFF3118C83F31288BFF36F8F30
:10300000184BD3E90267B04271EB07024FF00002A0
:1030100020D34FF0FF384FF0FF39D3E90015C3E953
:1030200002891A604FF48033C4F848338CF3118856
:10303000BFF36F8F21B1009532463B460020884791
:1030400003B0BDE8F0830023C4F84031D4F8403128
:103050000123C6E71146E9E700100140200A0020DD
:10306000180A0020D8020020431C13B521D00128E3
:1030700021DDB0F5000F20DA441EFFF779FE104B7A
:10308000D3E90013401AB0F5000F28BF0024013027
:1030900002190C48824228BF024652184FF0000025
:1030A00009490190009143F10003FFF783FE02B04C
:1030B00010BD0448E0E70024DFE7024CDDE700BF75
:1030C000E8020020FFFF7F009D2C000008B5FFF7FD
:1030D0004FFE024B1B68C01A08BD00BFE80200206B
:1030E00000F01F0140090128044B4FF0010218BFF6
:1030F0004FF0A0438A40C3F80C25704700030050EE
:1031000000F48053002B30B507BF14460D46012450
:103110000025C0F3811200F01F0110F0200F00F411
:10312000706040EA8202064B42EA050208BF4FF097
:10313000A04301F5E07142EA440243F8212030BD8A
:103140000003005000F01F0140090128044B4FF01C
:10315000010218BF4FF0A0438A40C3F8082570470A
:10316000000300504FF08053D3F83021082A06D1D5
:10317000D3F83431052B02D8024AD05C70470020C6
:10318000704700BF9C690000024AD2F80034002B4F
:10319000FBD0704700E0014010B502F0D4FD40B113
:1031A0004FF080430022C3F80C21C3F81021C3F86C
:1031B000382502F0C8FD002846D04FF08052604B01
:1031C000D2F80414C3F82015D2F80814C3F8241553
:1031D000D2F80C14C3F82815D2F81014C3F82C1523
:1031E000D2F81414C3F83015D2F81814C3F83415F3
:1031F000D2F81C14C3F84015D2F82014C3F84415B3
:10320000D2F82414C3F84815D2F82814C3F84C1582
:10321000D2F82C14C3F85015D2F83014C3F8541552
:10322000D2F83414C3F86015D2F83814C3F8641512
:10323000D2F83C14C3F86815D2F84014C3F86C15E2
:10324000D2F84424C3F87025FFF78CFF18B13D4B2A
:103250003D4AC3F88C26FFF785FF18B13B4BFB2294
:10326000C3F81825FFF77EFF70B14FF080414FF093
:103270008053D1F8E42ED3F8583222F00F0203F035
:103280000F031343C1F8E43EFFF76CFF20B1304B4E
:103290004FF40072C3F8402602F055FD48B14FF0DC
:1032A0008043D3F80024D20744BF6FF00102C3F873
:1032B00000244FF08053D3F83021082A0ED1D3F8E0
:1032C0003431052B02D8234AD35C3BB14FF0102395
:1032D000D3F808224FF08043C3F858254FF010234D
:1032E000D3F80022002A03DBD3F80432002B22DAC1
:1032F000194901234FF01020C1F804351224FFF7BB
:1033000043FFC0F80042FFF73FFFC0F80442FFF759
:103310003BFF0023C1F80435FFF736FFBFF34F8FA3
:103320000E490F4BCA6802F4E0621343CB60BFF34F
:103330004F8F00BFFDE70B4B0B4A1A6010BD00BF5B
:1033400000C00040005000404881030000F00040F1
:10335000009002409669000000E0014000ED00E0AE
:103360000400FA057C0000200090D00370B5012510
:103370000268B2FA82F3C3F11F035E1CDCB214D000
:10338000BFF35B8F05FA03F322EA030350E8006FF3
:10339000964204D140E8003CBCF1000FF6D1BFF3E7
:1033A0005B8FE5D102480C7070BD0248FCE700BF9E
:1033B0000000AD0B0200AD0B0368CB40DB0710B57E
:1033C00015D4012303FA01F10368BFF35B8F41EACF
:1033D000030250E8004F9C4204D140E8002CBCF1AD
:1033E000000FF6D1BFF35B8FEED1024810BD02484B
:1033F000FCE700BF0000AD0B0400AD0BF7B50446C1
:1034000018B1012829D003B0F0BD4FF0804302224B
:10341000C3F80823C3F80401D3F804210122DA60B9
:1034200001239C428DF8073014BF00250DF10705DC
:1034300042F210774FF08046D4B1012CE3D125B190
:10344000D6F80C3403F001032B70D6F80C34DB03F0
:1034500018D4134B00225A71D5E74FF08043002255
:10346000C3F80803C3F80021D3F800215860D7E758
:1034700025B1D6F8183403F003032B60D6F81834BE
:10348000DA03C0D52DB9012002F067FC013FD3D18A
:1034900003E09DF80730012BF5D0012CD9D0B2E71D
:1034A000240A0020044B1A7922B9012218609A805C
:1034B0000248704702487047240A00200000AD0B04
:1034C0000C00AD0B4FF0804310B5D3F800216AB16A
:1034D0000022C3F80021D3F800210122C3F80823F9
:1034E000114B587910B95A711B6898474FF08043B7
:1034F000D3F8042172B10022C3F80421D3F80421C7
:10350000D3F81824D3F81814920704D10122C3F871
:1035100018259A6010BD0222C3F80823024BBDE8AB
:1035200010401B6801201847240A0020036803F09C
:103530001F025B09012B0260024818BF4FF0A04038
:10354000704700BF00030050034B083033F81000F1
:10355000C0F34010704700BF8000002070B500F13C
:1035600008030C4C34F81330DA0505460E4607D52F
:10357000C3F3432304EBC30254F833305268984733
:10358000A3682BB1E26831462846BDE87040184771
:1035900070BD00BF80000020124A083010B432F81D
:1035A0001030D9051BD5C3F3432123F4F85322F877
:1035B000103002F11004002034F8023B13F4807F35
:1035C00003D0C3F34323994209D001303028F3D10B
:1035D000002342F83130044810BCFFF7EDBE10BCA8
:1035E000704700BF80000020F400002038B502467C
:1035F000FFF7AAFF094C02F1080540B134F8153075
:1036000007495B0B03F5A273002041F82300104625
:10361000FFF7C2FF002324F8153038BD80000020DA
:10362000006000402DE9FF41044617461D4621B3C6
:103630004E4E00F1080836F818309B0706D5FFF704
:1036400083FF18B14A4804B0BDE8F0810023CDE9FA
:1036500000338DF80E308DF80F300DF10F020B4650
:1036600020460DF10E0102F0C6FB36F8183023F0AB
:10367000020343F0010326F8183097B13B4B3E7824
:103680007A6804F1080033F810108F070CD5002A6F
:10369000D8D133F8102022F01C0242EA860223F827
:1036A0001020CDBB3348CEE721F02001C904C90C5E
:1036B00023F81010002AECD0032EC3D817782EB9A7
:1036C0002D4A07F5A27142F82160E2E7BA0002F143
:1036D000804202F5C04241EA4731D2F810C52CF0D1
:1036E000030CC2F810C5D2F810C52CF44F3C2CF4D2
:1036F000407CC2F810C5D2F810E54FEA042C0CF457
:103700007C5C4EEA064E4CEA0E0C41F0200123F898
:103710001010C2F810C5BCE7D5E900672046FFF7D6
:103720003BFF002EBED0114D2B689E4204D16B682A
:103730009F4201D100220AE010480DF10F01FFF76E
:1037400015FE0C4B98427FF47EAF9DF80F2045F894
:10375000326005EBC20308345F6035F8143043EA89
:10376000422343F4807325F814309BE78000002047
:103770000400AD0B0000AD0B00600040F400002021
:10378000F0B5044685B0154619B3334E00F108076D
:1037900036F81720930703D4FFF7D6FE002858D138
:1037A00012F01C0F02D04B78012B52D001238DF860
:1037B0000F300023CDE900134A1C8B1C20460DF16D
:1037C0000F0102F018FB36F8173043F0030326F818
:1037D000173015B9214805B0F0BD1F4E04F1080798
:1037E00036F81700830734D595F800C06146890084
:1037F00020F0200001F18041C00401F5C041C00C5F
:1038000026F817000023C1F810356A78002AE1D0A5
:10381000D1F81035AD7823F4991323F4F853C1F897
:103820001035D1F810E5230203F47C53120402F49E
:10383000403243EA0E0313432A0502F4801240EAA1
:103840004C30134340F0200026F81700C1F8103523
:10385000C0E70348BFE700BF800000200000AD0BB9
:103860000400AD0B014BC3E902017047800000204A
:1038700008B50246FFF768FE38B1054B0548083227
:1038800033F812305B0B0B7008BD0348FCE700BF38
:10389000800000200000AD0B0400AD0B38B50F4CCC
:1038A00094F87850BDB96022294604F1100001F067
:1038B000DBFF0620FEF776F8094B0A48C3F87C5177
:1038C000D3F87C214FF00042C3F80423012384F88D
:1038D0007830636738BD0448FCE700BF80000020F3
:1038E000006000400000AD0B0500AD0B034B93F8EA
:1038F0007800003818BF0120704700BF800000200A
:1039000001460148FFF758BDF0000020014601487C
:10391000FFF72CBDF000002037B50446FFF714FE7A
:1039200004F108021E4B33F81230E8B113F002051F
:103930001AD15B0B9A0002F1804000F5C24002F1FF
:10394000804202F5C04205600068D2F8100540F0E0
:103950000100C2F8100529B1012202FA03F3114A4D
:10396000C2F8043303B030BDC3F38203042B12D07A
:10397000052B12D001A80194FFF7D8FD019BD0F8C8
:103980001015D94001F001010231204603B0BDE815
:10399000304002F077BA0321F7E70221F5E700BFD4
:1039A000800000200060004008B50246FFF7CCFD13
:1039B000C0B102F108010E4B33F81130990711D450
:1039C0005B0B01229A409B000A4903F1804303F5F7
:1039D000C043C1F80823D3F8102522F00302C3F82E
:1039E000102508BDBDE808400021104602F04ABA83
:1039F00080000020006000400E4B00F1080213B56B
:103A000033F81230DB07044611D5FFF7CDFF20460F
:103A1000FFF7ECFD01A80194FFF788FD019B03F57A
:103A2000E073022240F82320034802B010BD03488F
:103A3000FBE700BF800000200000AD0B0400AD0BD1
:103A40002DE9F04F644B65486549002687B0012297
:103A500034461D6835B1D0F8045315421EBF1C60B2
:103A60001D68164304338B424FEA4202F1D1DFF85E
:103A70006C81D8F87C31002B00F091804FF0A0438E
:103A8000D3F820250492C3F82025D3F820280592E6
:103A9000C3F8202800270DF110097B0100934FF097
:103AA000010A49E0009B4F4A94FAA4F4B4FA84F462
:103AB0001C4404F10803E00832F81330039404F0C6
:103AC00007020AFA02FC19F8002022EA0C0209F89F
:103AD000002003A8C3F382059908FFF727FD039A86
:103AE00002F5E0724B0750F82220AB46C2F30142C8
:103AF00029D520465946D5B2FFF730FD03A80394D7
:103B0000FFF714FD039B03F5E07350F82330C3F374
:103B100001439D4207D10021204602F0B3F9294616
:103B2000204602F0AFF903A80394FFF7FFFC039BC4
:103B30000AFA03F3C0F8203559F82740002CB1D118
:103B4000CFB90127A9E7022A0CBF03210221204691
:103B5000019202F097F9032D04D0019A022A06D1AE
:103B6000012DE0D159462046FFF7F8FCDBE7032A98
:103B7000D9D1022DF5E7C8F87C41D8F87C311A4933
:103B80004FF0A043D3F820250492C3F82025D1F8A4
:103B900020350593C1F8203513437FF47BAF012412
:103BA00016B907B0BDE8F08F96FAA6F3B3FA83F31F
:103BB00004FA03F29B0003F1804303F5C04326EAB5
:103BC0000206D3F81005D3F81015C0F30520C1F391
:103BD0000141FFF7C3FCE3E70061004000600040E3
:103BE0002061004080000020000300500146014891
:103BF000FFF7BCBBFC00002037B5304B019300231E
:103C0000C0F80431D0F80421C0F82431D0F82421C0
:103C1000C0F81C31D0F81C21C0F80831D0F80821B8
:103C2000C0F800324B6381F82F300123036291F812
:103C30002D200D469A4218BF8360044602F031F9E8
:103C40002B6883B140F28623AB60AB681C48C4F894
:103C5000043303B030BD2946204602F03FF928B1B5
:103C6000019B013B0193019B002BF4DC95F82F3065
:103C70005BB91348019B002BEBDC0023C4F8003533
:103C800005231048C4F80035E3E7D4F8C434C4F879
:103C9000C4348BB10C4A0B4813F0010F18BF104607
:103CA00013F0020F02F1010218BF104613F0040FC7
:103CB000064B18BF1846DDE70248DBE7A086010087
:103CC0000000AD0B0100AD0B0000AE0B0200AE0B0F
:103CD00037B5344B01930023C0F80431D0F80421E8
:103CE000C0F82431D0F82421C0F81C31D0F81C21B0
:103CF000C0F80831D0F808214B6381F82F308B6A67
:103D0000012B04460D4617D10B6A5B0614D402231F
:103D1000C4F800320123236295F82D20022A18BF2F
:103D200023602B6893B140F28623AB60AB681E48DA
:103D3000C4F8043303B030BD0123E9E72946204627
:103D400002F0CCF828B1019B013B0193019B002BB1
:103D5000F4DC95F82F305BB91348019B002BE9DCAC
:103D60000023C4F8003505231048C4F80035E1E706
:103D7000D4F8C434C4F8C4348BB10D4A0B4813F0E2
:103D8000010F18BF104613F0020F02F1010218BF15
:103D9000104613F0040F074B18BF1846DDE7034821
:103DA000DBE700BFA08601000000AD0B0100AD0BFA
:103DB0000000AE0B0200AE0BF8B50779294D4FF0AD
:103DC0003C0C0CFB07FC05EB0C0494F82E60002E59
:103DD00046D1006863604B7B84F838308B7BA660EB
:103DE00045F80C2084F82D6084F8316084F8306048
:103DF00084F83930E3B90C681B4B04F01F066409E2
:103E0000012C18BF4FF0A04E06F5E07408BF9E4687
:103E100040F20C6C4EF824C04C6804F01F06640994
:103E2000012C18BF4FF0A04306F5E07443F824C0FE
:103E3000CB7B2BB9D1E90043C0F80845C0F80C355D
:103E40008B68C0F824351AB140F30730FDF7AAFD9E
:103E50003C2303FB07550548012385F82E30F8BDA8
:103E60000348FCE72C0A0020000300500000AD0BC3
:103E70000500AD0B036802790521C3F80015044B5A
:103E80003C2101FB0233022283F82E20704700BF41
:103E90002C0A002002680C4B10B50479C2F80833D4
:103EA000D2F80012094B21F00301C2F800120021E0
:103EB000C2F800153C2202FB0433012283F82E20B5
:103EC00083F8301010BD00BF864204002C0A002089
:103ED0002DE9F047314F0479D0F800903C2303FBE3
:103EE00004730D4693F82D30012B944604D10B78C2
:103EF000012B06D12A4811E0022B02D10B78012BAD
:103F0000F8D13C26274BC9F8083306FB047696F80F
:103F100030302BB1B3682448C9F80433BDE8F087CA
:103F20008CF00403C3F3800386F83030C6F820C059
:103F3000A846B8E80F0006F10C0EAEE80F00D8F85E
:103F40000030CEF800306B68B362EB6873626B7858
:103F5000C9F888352B78C4EB041A012B07EB8A0AC1
:103F600017D09BB9CCF3401C3C2303FB0473514690
:103F700083F82CC04846FFF73FFE3C235C433A19C8
:103F80003B59002BCAD182F83030C7E74FF0010C03
:103F9000EAE751464846FFF79BFEEEE72C0A002071
:103FA0000500AD0B864204000B00AD0BF0B52B4CA9
:103FB0002B4887B0214601F091FF002840D194F8AA
:103FC0002F70D4F820C0FFB9237B9A1E012A1BD87A
:103FD000616AA269914217D1E2696262CCF3401C26
:103FE00062691F48A262032B84F82CC084F82D70EC
:103FF000214604D107B0BDE8F040FFF7FDBD07B092
:10400000BDE8F040FFF764BE164E0FCE01AD0FC500
:1040100033682B60FFB1124AD2F8C434C2F8C434FA
:1040200099070FD501238DF8003000231CF0040FF1
:1040300084F8303000D01FB1D4E900316846984789
:1040400007B0F0BD5A0701D50223ECE7DB074CBFF0
:1040500003230423E7E78DF80070E6E72C0A00202D
:1040600000300040380A0020036803F01F025B099B
:10407000012B0260024818BF4FF0A040704700BFFC
:1040800000030050F7B5064601F0B4FF084601F002
:10409000B1FF01A80196FFF7E7FF019B03F5E0736D
:1040A0000C4640F20D6140F8231001A80194FFF77F
:1040B000DBFF019B03F5E073092540F82310042082
:1040C00001F04BFE012701A80194FFF7CDFF019AF3
:1040D000D0F81035D340DB0715D401A80196FFF7BF
:1040E000C3FF019B07FA03F3C0F80C35042001F06D
:1040F00034FE304601F07EFF013D042001F02DFE2C
:1041000015F0FF05DFD101A80194FFF7ADFF019A7B
:1041100001239340C0F80C35042001F01EFE204618
:1041200001F068FF042001F018FE01A80194FFF7D8
:104130009BFF019AD0F810350348D34003F00103E8
:10414000C01A03B0F0BD00BF0100AD0B10B5144C98
:10415000144A1549032323616361144BA261E3618F
:104160004FF4806323620023A3626362E3622266EA
:104170000F4A6266E01D1022A2662367E36663674A
:1041800001F04DFBBFF35F8F0A49204601F047FB6A
:10419000BFF35F8F2023A371BFF35F8F10BD00BFFC
:1041A000680A0020A2690000AB690000330D0020FE
:1041B000230D0020AF6900000E4B70B553F820406E
:1041C000013053F82060A64200D870BDD4E9003514
:1041D0002846984765B1EB6830B10028B8BF404227
:1041E000FF28A8BFFF2018705A7842F001025A70C9
:1041F0000834E8E74C67000008B50A4B01220220AA
:104200001A70FFF7D9FF00F083FF0320FFF7D4FFF8
:1042100000F068F9FCF77CF9034A137B23F00103F3
:10422000137308BD331100207003002008B5034844
:10423000034A0021121A01F017FF08BDD001002027
:104240003411002070B5002386B00122CDE904238B
:10425000134E144D01930F22CDE902321249182357
:1042600003FB005506EBC01604464FF4B07000FB8C
:1042700004110E4B00954FF4A072304600F0D4F8B4
:10428000737B0B482C7523F0040373734FF40263A4
:1042900003FB04041C44EE606C6006B070BD00BFFC
:1042A000F0020020100B0020A01D00209D45000002
:1042B000001F002080B52D4BA6B083F308882C4D3D
:1042C0002C4E6B692C4F43F4007300246B61E02388
:1042D00085F82230EC772C766C76AC7685F8204029
:1042E0006B6A43F4E0236B6285F82340FDF768FDB9
:1042F000FDF73AFB4FF0FF33AB62EB62FDF7B6FE22
:10430000FDF71EFE40F20113ADF8243006ABB3609A
:10431000CDE91F44229401F081FE2046FFF74CFFB7
:104320000120164DFFF748FF00F09AFC144BF56191
:104330000593012313490094CDE903434FF48062B0
:104340003B46CDE90144284600F06EF86A7B0646FC
:1043500022F0040228466A7301F018FF2046FFF796
:1043600071FF3A4631462846FDF7F8FB202700202A
:1043700000ED00E0100B0020F94100007003002068
:10438000B66900008019002070B50E4B0E4CA34298
:1043900001D3002070BDD3E9030141EA000212F00D
:1043A00003020BD19D685A61AA4201D11C33EEE78A
:1043B0005E690E60013259610144F5E76FF0150046
:1043C000E8E700BF800100208001002037B50C46DF
:1043D0004FF02005EFF3118185F31288BFF36F8F43
:1043E00045695DB125602B68436183690133836151
:1043F000002081F31188BFF36F8F11E052EA030CA4
:1044000003D125606FF00B00F3E7CDE900230246EE
:10441000083000F07BFB18B9024B9B685B69236096
:1044200003B030BD100B00202DE9FF410E9E067336
:10443000042646730D9E867300F158050F46D61D5F
:10444000C0E916550C9A002526F007062037C0E96A
:104450000655C0E919768560C573C56606F1200862
:1044600002920B9A019288440A9A009242460446AC
:10447000FDF742FB044B65659B6803B11B6F236727
:10448000404604B0BDE8F081100B0020F0B587B0C5
:1044900000270597109F04970F9F03970E9F029781
:1044A000DDE912650D9F01970C9F00970446FFF709
:1044B000BBFFB5F1FF3F08BFB6F1FF3F05D055EA9E
:1044C000060305D1204600F0C5FA204607B0F0BD2E
:1044D000034932462B4604F1180000F02BFDF4E7A7
:1044E000AD6100002DE9F043294C2A4D87B02646E6
:1044F000AE4204F130040FD300F0C6F9244CDFF8CB
:1045000098904FF4004640F2E737AC4220D307B012
:10451000BDE8F04300F088BB54F8043C059354F820
:10452000103C049354F8143C039354F8183C029341
:1045300054F81C3C019354F8203C009354E90C01BE
:1045400054E90A23FFF770FF54F8303C5E65CEE76C
:10455000636A5A1C0DD023EAE37300213846C3FB7B
:10456000060151EAC333D4F8008004D1404600F07C
:1045700071FA3034C9E74FF47A720023FBF7C0FDBB
:1045800002460B4608F11800494600F0D3FCF0E75C
:104590008001002080010020AD61000008B50B4CB7
:1045A0000B4D4FF02002EFF3118382F31288BFF31B
:1045B0006F8F01F075FE2B78A06113B9FDF7DAF962
:1045C000EFE7FDF72DF80028EBD1F7E7100B0020FF
:1045D000331100202DE9F341044617461E464FF0E3
:1045E0002003EFF3118883F31288BFF36F8FC36842
:1045F000324A6BB180689168884219D057EA060345
:1046000018D188F31188BFF36F8F6FF00F000CE0A3
:10461000916891F90E1021610133E3609368A36002
:1046200088F31188BFF36F8F002002B0BDE8F081DE
:104630002169F0E791F90E1090F90E309942A8BF68
:1046400019466FF07E029142B8BF11468B422EDDB3
:1046500001F05FFD0546CDE9007619482246414646
:1046600000F054FA0028E0D04FF02003EFF3118659
:1046700083F31288BFF36F8F236821699C420AD0AD
:104680004BB193F90E309942A8BF19466FF07E03E3
:104690009942B8BF1946A06801F03BFD00B945B189
:1046A0000748314600F0DEF86FF00A00BDE700254C
:1046B000D1E786F31188BFF36F8FF5E7100B002069
:1046C0003411002038B583680446002B32D01C4AD0
:1046D0009268934231D1DA7B013ADA73C368012BD5
:1046E00005D9013BC36000F09FFA002038BD4FF0B0
:1046F0002003EFF3118583F31288BFF36F8F0169F5
:10470000806801F006FD204601F09CFDA06058B1D4
:1047100090F90E2022610022826701F037FD0948DE
:10472000294600F09FF8DEE7E06085F31188BFF3CB
:104730006F8FD8E76FF01500D8E74FF0FF30D5E75F
:10474000100B00203411002038B504464FF0200330
:10475000EFF3118583F31288BFF36F8F01F072FDC1
:1047600048B10022826701F011FD29460548BDE8E5
:10477000384000F077B8D4E902329A4218BF0133CA
:10478000A360F2E73411002013B54FF02004EFF3DB
:10479000118184F31288BFF36F8F846844B1013CA8
:1047A000846081F31188BFF36F8F002002B010BDC9
:1047B00052EA030406D181F31188BFF36F8F6FF0C3
:1047C0000F00F3E7CDE900230246024800F09EF90E
:1047D000ECE700BF3411002038B5074D2C6854B108
:1047E000FEF774FC054B04441C6128680021BDE8F9
:1047F000384001F065BD38BD400B0020100B002093
:10480000F8B504460D464FF02003EFF3118783F30C
:104810001288BFF36F8F104E00214FF4004C40F20E
:10482000E730316100234FF47A72E4FB0C01FBF7AF
:1048300067FC002C094B0ADC1860094BB0681D604E
:10484000FFF7CAFF87F31188BFF36F8FF8BD022807
:10485000B8BF0220F0E700BF100B0020400B002083
:104860003C0B002049B9EFF3058030B9054BDA69FC
:104870009B689A4201D0FDF7EBB881F31188BFF332
:104880006F8F7047100B00204FF02003EFF3118162
:1048900083F31288BFF36F8F044B9A68D37B013B7D
:1048A000D37381F31188BFF36F8F7047100B002013
:1048B00038B502460C480D4D01F062FC044600B9C3
:1048C000EC68AB684AB95A7BD20606D1A26922B914
:1048D000DA897F2A01D9EB6138BD9C4202D020469B
:1048E000FFF77AFFEC61F7E7300B0020100B002098
:1048F00070B590F90D20437B002A014604DA03F0DD
:104900007F03437301F014FC4B7B154A63F07F0374
:104910004B73D2E9083402F12005AB421BD0D3B16E
:1049200091F90E6093F90E0086420FD0801B00288B
:104930000CDD5868C1E90030016059609068431A85
:104940005842BDE870405841FFF7B2BFA34202D0C1
:104950001B68002BE6D1C1E9005421605162EDE7EC
:10496000100B002038B54FF02003EFF3118583F3CF
:104970001288BFF36F8F174B174A9C6811688C42DF
:1049800007D12046FFF728FF85F31188BFF36F8F0B
:1049900038BD00211160114A1268C2B1E2897F2A34
:1049A00015D8627BD20612D10D4A94F90E10126806
:1049B00091420CDB0B4A944209D01A69824203DC13
:1049C0002046FFF795FFDCE7121A1A61DCE70022A8
:1049D000FBE700BF100B0020380B0020400B00202D
:1049E0003C0B0020F002002070B490F90D20437BB6
:1049F000002A2ADBDA0628D1826932BB144A63F026
:104A00007F034373D2E9083402F12005AB4217D08B
:104A1000B3B190F90E6093F90E108E420BD0891B42
:104A2000002908DD5A68C0E900321060586070BC87
:104A30000020FFF73DBFA34202D01B68002BEAD144
:104A4000C0E9005420605062F1E770BC704700BFBD
:104A5000100B002010B54FF02002EFF3118482F309
:104A60001288BFF36F8F427B510704D484F31188FF
:104A7000BFF36F8F10BD22F004024273FFF7B4FF43
:104A800021460248BDE81040FFF7ECBE341100207B
:104A900008B590F90D20437B002A014604DA03F0A3
:104AA0007F03437301F044FB044B9868431A584258
:104AB0005841BDE80840FFF7FBBE00BF100B0020C7
:104AC0002DE9F041064615461C464FF02003EFF352
:104AD000118783F31288BFF36F8F01F089FB87F38F
:104AE0001188BFF36F8FB4F1FF3F08BFB5F1FF3FEF
:104AF00008D02A46234606F118000349BDE8F041D4
:104B000000F018BABDE8F081AD61000010B5074BA8
:104B10009868074B0C4618601146DDE90223FFF741
:104B2000CFFF2046BDE81040FCF792BF100B0020DD
:104B3000380B0020F8B504464FF02003EFF3118640
:104B400083F31288BFF36F8F437BDA0649B233D108
:104B500082698ABB03F07F03437301F0E9FA437B68
:104B6000174A817363F07F034373104650F8203F68
:104B700083421BD0D3B1576A93F90E50A94210D08B
:104B80006D1A002D0DDD5A68C4E9003214605C60B6
:104B90000120FFF78DFE012086F31188BFF36F8F90
:104BA000F8BDBB4202D01B68002BE5D1536AC4E9B3
:104BB00000031C605462EBE7A1730020ECE700BF28
:104BC000100B002070B50446183001F053FB4FF075
:104BD0002003EFF3118683F31288BFF36F8F94F9EC
:104BE0000D20637B002A05DA03F07F036373204600
:104BF00001F09EFA0B4D637BA86843F010036373CA
:104C0000031B58425841FFF753FE86F31188BFF348
:104C10006F8FAB68A34203D1BDE8704001F0A6BA24
:104C200070BD00BF100B002010B54FF02003EFF354
:104C3000118483F31288BFF36F8F084B9A68D37B7C
:104C40000133D3730020FFF733FE84F31188BFF3E1
:104C50006F8FBDE8104001F089BA00BF100B002033
:104C6000044B002103F12002C3E908220846FFF7A4
:104C7000C7BD00BF100B0020F8B54FF02003EFF3C5
:104C8000118583F31288BFF36F8F1A498868437BBD
:104C900003F07F03437301F04BFA8B685A7B08469D
:104CA00062F07F025A7350F8202F82421CD0DAB192
:104CB0004F6A93F90E6092F90E40A6420FD0A41BE2
:104CC000002C0CDD5168C3E900210B60536001200A
:104CD000FFF7EEFD2846BDE8F840FCF7B9BEBA4242
:104CE00002D01268002AE6D14A6AC3E900021360C2
:104CF0004B62ECE7100B002050EA01032DE9F04174
:104D000005460E4603D1FFF7B7FF002033E06FF0F2
:104D10000104241A4FF0FF3363EB0103012C73F1FC
:104D2000000302DA01F0E6FA44194FF02003EFF332
:104D3000118883F31288BFF36F8F104F104BB86840
:104D40001860FFF7A5FEB8680E492A4633461830AA
:104D500000F0F0F8BA68537B43F0100353734046F9
:104D6000FCF776FE01F0C6FA201A63EB0303012874
:104D700073F10003C9DBBDE8F08100BF100B002018
:104D8000380B0020AD610000B1F1FF3F08BFB0F16A
:104D9000FF3F08B506D1084B9868FFF713FF4FF0A7
:104DA000FF3008BDFFF7A8FF4FF47A7380FB0303C1
:104DB000C00B40EA4340F4E7100B0020014B986819
:104DC000704700BF100B00202DE9F04104464FF062
:104DD0002003EFF3118683F31288BFF36F8F437BB9
:104DE0001A0705D586F31188BFF36F8FBDE8F081F0
:104DF00023F0200242F00801D20920D14173A368B8
:104E000013B1204601F09CF904F1180001F032FAC8
:104E100004F158074FF00008A56DBD4200D0B5B9A8
:104E20000120FFF745FD104B9B68A342DAD1EFF359
:104E30000583002BD6D13046FCF70AFED2E703F0FB
:104E40005F0343F00803437301F072F9D7E7284684
:104E500001F076F905F1180001F00CFAC5F8788038
:104E60002846FFF7C1FDD7E7100B002008B506481C
:104E7000064A0749121A01F0F9F8BDE80840054A48
:104E80000549064801F0F2B800000020D0010020DA
:104E9000F069000000000000F06900000000002040
:104EA000034B1B680BB9FEF711B90020704700BF18
:104EB000440B0020104B10B51C689C4208BF002416
:104EC000FFF7EEFFA4B1D4E904321B1A62EBE070E5
:104ED000B3F1004F70F100020ADA0028ACBF1846A7
:104EE0000020064B1B6913B19842A8BF184610BD9D
:104EF0006FF00040F5E700BF00010020100B00201C
:104F000030B5036868B10A4A5268904209D043B18B
:104F1000D3E90421D0E90445121941EB0501C3E9A5
:104F20000421426813605A600023C0E9003330BD99
:104F300000010020B3F1FF3F08BFB2F1FF3FF8B519
:104F400004461F46154667D081604FF02003EFF3FB
:104F5000118683F31288BFF36F8F6FF00102531B2A
:104F60004FF0FF3C6CEB0703002B1BDB2B4BD3E913
:104F70000013521A6CEB0303551B63EB0703012D5F
:104F800073F10002BCBF01250023C0E9045324488B
:104F9000D0E9003C834218D1C4E9000CCCF80040B1
:104FA000446026E0FFF77CFF013547F100072D182C
:104FB00047EBE077C4E90457E9E7521A65EB0705C8
:104FC0009C45C4E90425E7D01B68002BE4D0D3E955
:104FD0000417D4E904258A4275EB070EEDDA8A1A24
:104FE00067EB0505C3E904255A68C4E9003214607B
:104FF0005C60036883420BD09C4209D1FFF75AFFE3
:1050000018B1084B1B69834202D00021FEF72CF82F
:1050100086F31188BFF36F8FF8BD00BFF003002047
:1050200000010020100B00202DE9F8430546FFF792
:1050300099FC4FF02003EFF3118483F31288BFF340
:105040006F8F244EDFF890803560244DD8F8000033
:1050500032684045D5E9001E4FEAE2770BD050B1E7
:10506000D0E9043C9A4277EB0C0916DA9B1A6CEBF8
:10507000070CC0E9043C52184EEB0707C5E90027AE
:1050800000253560FFF716FF2946FDF7EDFF84F395
:105090001188BFF36F8FBDE8F88359184EEBE377A3
:1050A000D31A336000220023C0E90423C5E90017A6
:1050B000FFF726FF84F31188BFF36F8F836898474B
:1050C0004FF02003EFF3118483F31288BFF36F8F47
:1050D000BCE700BF440B002000010020F0030020CB
:1050E00010B54FF02003EFF3118483F31288BFF360
:1050F0006F8FFDF7EBFF054AD2E90031C01841F18F
:10510000000184F31188BFF36F8F10BDF0030020FE
:10511000024A0349034800F01FBA00BF6868000054
:10512000BB690000C869000010B50A4C23681BB1B8
:1051300001232360002010BD00F0CEF80028F7D036
:105140000138062803D8044B53F8200010BD03484B
:1051500010BD00BF480B002064670000FE8FFFFFFA
:10516000BFF34F8F0549064BCA6802F4E062134350
:10517000CB60BFF34F8F00BFFDE700BF00ED00E045
:105180000400FA0510B4094B09490A4C4FF0FE32ED
:10519000C3F800244968C3F80424C3F80824C3F8FA
:1051A0000C240023C4F8003510BC084700B002509E
:1051B0000801002000A00250D0E90012014BC3E911
:1051C000001270470801002010B5044630B1636832
:1051D000DB0602D500232360636010BD024B034849
:1051E0005B689847F3E700BF080100208067000074
:1051F000B0B1436893B1DB060ED5012350E8002F10
:10520000194640E8001C9CF0000FF7D1012AF5D0A8
:10521000BFF35F8F00207047034870470348704713
:105220006FF4E040704700BFE98FFFFFEA8FFFFF98
:1052300068B143683BB1DB0607D5BFF35F8F00233E
:1052400003601846704703487047034870476FF47F
:10525000E0407047EA8FFFFFE98FFFFF10B504467B
:1052600020B1002211232260636010BD0148FFF7C6
:1052700089FFF6E7A867000070B5D0E90023134C5A
:10528000134D6360D0E90230C4E902302260114B53
:10529000086818604868586088689860D1E9030118
:1052A000D8601961D5F81831DB060DD50023C5E9A2
:1052B0004533C5E96E3305F58A709047236805F5D7
:1052C000DC70BDE87040184770BD00BF18010020B9
:1052D000600B00202801002038B500F02FF820B125
:1052E000032400F063F8204638BD00F031F898B987
:1052F00000F0ACF898B90F4DD5F828391B0EF02BFB
:1053000008D1D5F8242A0C4B9A420AD0072400F081
:1053100017F8E6E70624FAE70424204638BD0024FF
:10532000F5E7012000F092F804460028F7D1C5F80F
:105330000C0AD8E700B002500000E02000207047BF
:1053400000207047014BC3F8040A704700B00250B8
:1053500010B5114800F048F800B110BD0F4800F03A
:1053600043F80028F9D10E4C204600F03DF8002803
:10537000F3D10C4B0C481C6000F036F801460028B5
:10538000EBD100F02DF8044608B1204610BD00F026
:105390003FF82046FAE700BF6001002054010020DA
:1053A0005C010020640100205801002008B5084875
:1053B00000F024F8074800F021F8074800F01EF834
:1053C000064800F01BF8BDE8084000F00BB800BF2D
:1053D00060010020540100205C01002058010020E1
:1053E00000207047704700BF08B5034B02681B6878
:1053F00010689847002008BD1801002008B5034B2D
:1054000002685B6810689847002008BD18010020FA
:1054100070B5094C094D2069AB68984718B1084B25
:1054200008485B689847084AEB68206900211160CA
:10543000BDE87040184700BF280100201801002077
:1054400008010020CC6700005C0B002070B51B4DEC
:105450001B4E0446B26828699047F8B95CB1194CF4
:105460002368B3B1012B1BD0013B23602869F3688B
:105470009847002070BD134C216841B9124B01229E
:10548000C3F80025114AD2F81039002BFBD10131A5
:105490002160F36828699847002070BD0C4870BDF2
:1054A0000A4AD2F81039002BFBD1074A6FF07E4030
:1054B000C2F80035FFF746FF2368D5E72801002032
:1054C000180100205C0B002000A0025000B0025028
:1054D000E98FFFFF704708B500F010FF4FF47A72B4
:1054E000A0FB020302FB0131C00B40EA4140C90BA3
:1054F00008BD38B5002120EAE0744FF4004540F2C1
:10550000E7304FF47A720023C4FB0501FAF7F8FD87
:10551000BDE83840FFF738BC034658B1426802F096
:105520000302012A03D0032A04D1026812B1002029
:10553000986070476FF0150070474268816002F014
:105540000302032A4FF0000203460CBF0068104616
:105550005A607047002070470FB407B504A951F88E
:10556000040B0191FBF752F803B05DF804EB04B0B3
:105570007047038B13F0070305D10368002B0CBFA2
:10558000002003207047022B05D1438B002B14BF52
:10559000002004207047012B05D10368002B0CBFAD
:1055A000002005207047002070472DE9F0410D468E
:1055B00007461946281D90461E46FFF7BEFF0446C3
:1055C00038B13346424629463846A446BDE8F04144
:1055D0006047BDE8F08110B44FF02004EFF3118272
:1055E00084F31288BFF36F8F416110BC0121FBF778
:1055F0001BB810B50C4640B139B1081DFFF78CFF40
:1056000028B9A36833F0030301D06FF0150010BD73
:1056100038B50C46054658B151B10B6843B14B68DB
:1056200033B11C22002100F01FF92C61002038BD8D
:105630006FF01500FBE770B504460E46FFF7D9FF83
:10564000051E31DB4FF02003EFF3118183F3128845
:10565000BFF36F8F638B208B4FF6FF75AB4200F06B
:1056600007022ED0022A0ED101336383154601238F
:1056700081F31188BFF36F8FB3B100233146204609
:10568000FFF793FF10E0830701D0062A0ED1002315
:105690003360636893B9C4E90066154662B90A4687
:1056A00020460221FAF7C0FF284670BD052A0CBF2C
:1056B0006FF085056FF004050023D9E71E60666072
:1056C000EBE76FF00A05F7E7044608B50846114610
:1056D0001A46A047FFF772FBFCF7FEFBD0E900215A
:1056E00030B54FF03333A2FB0324D51843EB040548
:1056F000A1FB0313521844EB0304521944F10002B6
:10570000891843F10003C0E9001330BD0A68002A7C
:1057100010B503460FDD013A0A601A6844680A2092
:10572000A2FB001200FB0422100F22F07042C3E91A
:105730000012303010BD3020FCE72DE9F84F9A46BA
:10574000D3786F2B80460F461546A3F1410B29D025
:1057500024D8582B14BF0A261026DDF8289032468C
:10576000002340463946FAF7CBFC092AD4B21ED8AA
:105770003034B045E4B277F1000309F8014D01D3AC
:10578000D14511D82B789B0605D5082E15D1AB78BD
:1057900043F00803AB704846BDE8F88F03F0F70309
:1057A000702BD7E70826D8E780460F46D7E7BBF12E
:1057B000190F94BF37345734DBE7102EEBD1AB7899
:1057C00043F01003E6E72DE9F04107468846154609
:1057D0001E461446B442A4EB050002D33EB923781A
:1057E0002BB114F8010B4146B8470028F2DABDE8A6
:1057F000F081704708B50020FBF77AFE00F019BC75
:105800000146006800F015BC00210120FFF7F6BF3B
:1058100008B5FCF7FDF8BDE80840FCF7D5B901393B
:10582000034611F8012F0AB91A70704703F8012BCB
:10583000F7E7034600201A5C02B970470130FAE727
:10584000034600201A5C0AB1884200D1704701303B
:10585000F8E710B5431E0A44914200D110BD11F87B
:10586000014B03F8014FF7E7C9B2024403469342E4
:1058700000D1704703F8011BF9E74FF0FF30704784
:10588000062808D14FF080430122C3F80025BFF35A
:105890004F8F20BFFDE77047002383F31188BFF3CC
:1058A0006F8F70470369C9B20C2201FB0233186C79
:1058B00000F0070070474FF02003EFF3118283F3ED
:1058C0001288BFF36F8F036803F0C00343F0020335
:1058D000036082F31188BFF36F8F7047034670B582
:1058E0000069C9B24FF02004EFF3118684F31288E7
:1058F000BFF36F8F0C2505FB0104246C14F0C0046A
:1059000001D0A24210D105FB010001220264002057
:1059100086F31188BFF36F8F28B95B6803EBC10171
:105920004B689847002070BD4FF0FF30F0E78022B1
:10593000FFF7D4BFF8B5069F04690546C9B24FF01A
:105940002000EFF3118C80F31288BFF36F8F0C26C9
:1059500006FB0146306C00F0070EBEF1010F11D1BD
:10596000376400268CF31188BFF36F8F46B90C2083
:1059700000FB0144C4E90E236B6853F831309847AB
:105980003046F8BD00F0C000874214BF4FF0FF362C
:105990006FF07706E6E713B580240094FFF7CAFF9F
:1059A00002B010BD006910B4CBB21C2403FB04008C
:1059B000002110BC1047002000F0DEB9002000F0EC
:1059C00018BA1046FEF7C0BE43685B68D3F81035BE
:1059D0000B600020704743685B68D3F804054240C1
:1059E0000A404240C3F804250020704743685B68C2
:1059F0000020C3F80815704743685B680020C3F8AF
:105A00000C15704743685A68D2F804354B40C2F809
:105A10000435002070470369586830B558B1002438
:105A2000814212D108689D6854B98D42586000D1F6
:105A30009860002008606AB9002030BD2846EFE772
:105A40008D42206008BF9C60F3E705680446002D86
:105A5000F4D13AB198685A680A6059600028EBD1CD
:105A60009960EAE76FF01500E7E7CA074368006945
:105A700005D4C1F34202012A04D0022A0AD06FF0F1
:105A8000150070471B684FF0CC72C3F824254162A3
:105A9000002070471B684FF0CD62F6E702690B46A5
:105AA000D2E9010183E803000020704743681B68C6
:105AB000D3F88004C3F880047047436802691B6808
:105AC000D3F8100148B1527C0A700020C3F81001CD
:105AD000D3F8102101221A6070474FF0FF30704751
