:10000000602D00203D2400005364000011240000F6
:100010001124000011240000112400000000000041
:100020000000000000000000000000001921000096
:100030001124000000000000C52000001124000071
:10004000C9210000C9210000C9210000C921000008
:10005000C9210000C9210000C9210000C9210000F8
:10006000C9210000C9210000C9210000C9210000E8
:10007000C9210000C9210000C9210000C9210000D8
:10008000C9210000C9210000C9210000C9210000C8
:10009000C9210000C9210000C9210000C9210000B8
:1000A000C9210000C9210000C9210000C9210000A8
:1000B000C9210000C9210000C9210000C921000098
:1000C000C9210000C9210000C9210000C921000088
:1000D000C9210000C9210000C9210000C921000078
:1000E000C9210000C9210000C9210000C921000068
:1000F000C9210000C9210000C9210000C921000058
:1001000053B94AB9002908BF00281CBF4FF0FF317E
:100110004FF0FF3000F00CB8ADF1080C6DE904CEE3
:1001200000F008F8DDF804E0DDE9022304B07047D0
:10013000704700BF2DE9F04F07468C460846099EE0
:1001400015463C461946002B40F0C6808242B2FA62
:1001500082F746D94FB1C7F1200E24FA0EFE00FAFD
:1001600007F3BD404EEA030CBC404FEA15481FFAA6
:1001700085FEBCFBF8F9220C08FB19C309FB0EFA3B
:1001800042EA03439A4528D9EB1809F1FF3004D21B
:100190009A4502D9A9F102002B44A3EB0A03A4B2A9
:1001A000B3FBF8F208FB123302FB0EFE44EA0344F1
:1001B000A64514D92C1902F1FF3303D2A64501D963
:1001C000931E2C44A4EB0E0443EA00401EB1FC40F5
:1001D000002334607360BDE8F08F4846DDE71346C6
:1001E000F0E702B9FFDE87BB831A01214FEA154E03
:1001F000AAB2B3FBFEFC200C0EFB1C330CFB02F876
:1002000040EA0343984563D9EB180CF1FF3004D260
:10021000984502D9ACF102002B44A3EB0803A4B229
:10022000B3FBFEFC0EFB1C330CFB02F244EA03445E
:10023000A2424FD92C190CF1FF3304D2A24202D9A9
:10024000ACF102032C44A41ABEE7C7F1200C20FA3B
:100250000CF800FA07F324FA0CFCBD404CEA030248
:100260004FEA154EABB2B8FBFEFC110C0EFB1C8026
:100270000CFB03F941EA0040814504FA07F423D955
:1002800028180CF1FF3104D2814502D9ACF10201EA
:100290002844A0EB090092B2B0FBFEFC0EFB1C0050
:1002A0000CFB03F842EA004398450FD9EB180CF118
:1002B000FF3204D2984502D9ACF102022B44A3EBE1
:1002C000080342EA014191E76146E2E76246F6E748
:1002D0006046A2E76346B6E7834205D90EB1C6E998
:1002E00000700021084676E7B3FA83F181B98342B2
:1002F00001D3BA420AD8BC1A60EB030301209C4622
:10030000002E68D0C6E9004C002164E70846F7E7F4
:10031000C1F1200C8B4022FA0CF41C4302FA01F5C7
:1003200000FA01F327FA0CF220FA0CFB4FEA144909
:100330001343BBFBF9F81FFA84FE09FB18BB1A0C28
:1003400008FB0EFA42EA0B42924507FA01F73ED942
:10035000A21808F1FF3004D2924502D9A8F1020098
:100360002244A2EB0A029BB2B2FBF9F809FB182265
:1003700008FB0EFE43EA024296452AD9A21808F16C
:10038000FF3304D2964502D9A8F10203224443EA7E
:100390000040A0FB0593A2EB0E029A42CE4698467F
:1003A00002D306D14F4504D2B9EB050E63EB040826
:1003B000013886B1B7EB0E0362EB080707FA0CFCB5
:1003C000CB404CEA0303CF40C6E900379CE74046E8
:1003D000C7E74346DBE73146FDE600002DE9F84379
:1003E0001A481B4FDFF86C801B4EDFF8709005F049
:1003F000D4FE05F081FE3D682C1841EBE575D8F878
:1004000000200D21304605F085FED9F800200E2190
:10041000304605F07FFE124B0F211A68304605F07A
:1004200079FE104B10211A68304605F073FE05F076
:1004300063FEA04271EB0503E1DA201A05F07AFEB3
:100440003B681C1945EBE375D9E700BF1479000040
:100450001800002008000020707400000C0000202C
:100460006C070020700700202DE9F8431748184E4C
:10047000DFF86080184FDFF8649005F08EFE05F01D
:100480003BFE35682C1841EBE575404605F01FFE34
:100490003860484605F01BFE114B1860114805F006
:1004A00016FE114B1860114805F011FE104B186034
:1004B00005F022FEA04271EB0503E6DA201A05F0F2
:1004C00039FE33681C1945EBE375DEE7147900004B
:1004D000140000209876000058070020A076000045
:1004E0005C070020A876000060070020B0760000BE
:1004F000640700202DE9F0413548DFF8D880364EFA
:10050000364D05F04AFE05F0F7FD10F57A7441F11D
:100510000007D8F80010324805F03FFE304605F0DD
:100520003CFE304B3048196805F037FE304605F088
:1005300034FE2E4B2846196805F02FFE2C4B28461A
:10054000196805F02AFE2B4B2846196805F025FE90
:10055000294B2846196805F020FE304605F01DFE9F
:10056000264B2748196805F018FE304605F015FEA1
:10057000244B2846196805F010FE234B28461968BD
:1005800005F00BFE214B2846196805F006FE204BAE
:100590002846196805F001FE304605F0FEFD1D4BAA
:1005A0001D48196805F0F9FD304605F0F6FD3046A6
:1005B00005F0F3FD05F0A0FDA04271EB0703A8DAFA
:1005C000201A05F0B7FD14F57A7447F10007A0E78B
:1005D0003579000078070020C279000065790000B5
:1005E000867900001C000020537900005807002085
:1005F0005C07002060070020640700201400002032
:1006000069790000080000200C0000206C07002021
:1006100070070020180000207A7900002DE9FF42C1
:100620001E481F4EDFF87C9005F0B7FD05F064FD15
:1006300035681D4B2C189F6841EBE5750DF10303E0
:1006400001930122032302928DF80C301648D7F84B
:1006500008C04D2301A9E047C9F8000028B1134B99
:1006600013481A784D2105F098FD9DF903209DF857
:100670000330002A0F4AB8BFA3F58073136005F05A
:100680003BFDA04271EB0503D8DA201A05F052FDBC
:1006900033681C1945EBE375D0E700BF14790000FF
:1006A0001C00002074070020D07400008B10002074
:1006B0008B79000078070020064A1378092B9FBF2A
:1006C0000549C8540133002094BF13704FF0FF3028
:1006D000704700BF801000208110002010B40A78FD
:1006E000022A03D0052A10D010BC7047CB68002B1B
:1006F000FAD0D1E90123D05C0D2803D1074B0122A8
:100700001A60F1E710BCFFF7D7BF83680449DC68C3
:100710000A22A446642310BC604700BF680700207B
:100720008C100020044B00221A70044A4FF0FF3353
:100730001360034A136070478010002004000020FB
:100740000000002070B5674B674A187814460023F4
:100750001146984205DD14F8015B232D17D1634C37
:1007600023600023984205DD12F8014B212C10D1A3
:100770005F4A13605E4C5D4D22682B689A420ADA2C
:100780004FF0FF332B6023606FF00200A5E00133D0
:10079000DFE70133E6E75D1C2C46A24232DC5E1C3B
:1007A000F2D0541CF0D0002800F095804C5D04F08D
:1007B000DF04542C65D10728E6D9D81C0446A24290
:1007C00025DC0B449C7804F0DF044C2C25D1121A54
:1007D000042A40F083801A79A2F130040A5C4FF4B5
:1007E0007A71303A4A43642101FB042259799B799A
:1007F00030390A2000FB0122303B13443D4A13608C
:1008000000206AE00E5D232EBED00134C5E70D5DE9
:10081000303D092D62D80134D1E7422C17D1121A8C
:10082000042A5BD11A79A2F130040A5C4FF47A7180
:10083000303A4A43642101FB042259799B793039CB
:100840000A2000FB0122303B13442B4AD7E7542CEB
:10085000D6D1121A042A41D11A79A2F130040A5CC5
:100860004FF47A71303A4A43642101FB04225979EA
:100870009B7930390A2000FB0122303B13441F4A88
:10088000BDE74C2C2AD104287FF67EAFD21A042A69
:1008900024DCCA1892782F2A20D9887833281DD8CA
:1008A0000B44DB782F2B19D9C978312916D8302A77
:1008B00002D1134A303BA2E7312A02D1114A303B20
:1008C0009DE7322A02D1104A303B98E7332A97D16C
:1008D0000E4A303B93E74FF0FF3070BD6FF00100E0
:1008E000FBE700BF801000208110002004000020E2
:1008F0000000002018000020140000201C00002030
:10090000080000200C0000206C0700207007002069
:100910002DE9F0411348144E144F05F03EFC05F04C
:10092000EBFB10F57A7441F10005DFF84480336881
:1009300053B1FFF707FF38603968404605F02DFCDA
:10094000FFF7F0FE0023336005F0D6FBA04271EB09
:100950000503ECDA201A05F0EDFB14F57A7445F185
:100960000005E2E71479000068070020100000206D
:10097000C47900002DE9F14FDFF8A4B0294DDBF870
:100980000860DFF8A480002415F8019BDBF8101044
:100990002348264F012303FA09F20B6823EA0203D6
:1009A0000B604246336849469847013400280346A5
:1009B00038604A46214605DA1D4801B0BDE8F04FCF
:1009C00005F0EBBB1B4805F0E8FB042CDCD11A4E0C
:1009D000DBF80890DFF848A0DFF85880002416F80C
:1009E000015BDBF81010012303FA05F20B6823EA20
:1009F00002030B604FF40032D9F80030294650460C
:100A0000984701340028034638602A462146D3DB44
:100A1000404605F0C2FB042CE1D101B0BDE8F08FE7
:100A200070740000D37A00001000010074070020E9
:100A3000DE790000207A0000D77A0000F0B58DB092
:100A4000FFF798FF5B4C204606F009FB216828B9A8
:100A500059480DB0BDE8F04005F09FBB574E5848CF
:100A600005F09BFB33780993012702230A978DF841
:100A70002C30A36820469D683A464D2309A9A84713
:100A8000504D0446286038B132784F484D210DB0A2
:100A9000BDE8F04005F081BB4C4E306806F0DFFA4F
:100AA00028B94B480DB0BDE8F04005F076BB306882
:100AB00083681B6823B96FF057032B600DB0F0BD3E
:100AC00044492246984728600028F7D13068836857
:100AD00041495C683A464FF0FF33A0472860002840
:100AE000ECD1306883683D49DC680A226423A04762
:100AF000044628600028E1D101F05EFE002601F0E6
:100B000067FE00270325CDE90667CDE90245CDE95B
:100B10000044334B334904944FF48062324804F06C
:100B200019FA324B1860324B32490094CDE906670E
:100B3000CDE90354CDE901444FF480622E4804F01E
:100B400009FA2E4B18602E4B2E490094CDE906670A
:100B5000CDE90354CDE901444FF480622A4804F002
:100B6000F9F92A4B18602A4B2A490094CDE9066707
:100B7000CDE90354CDE901444FF48062264804F0E6
:100B8000E9F9264B18600423CDE90243CDE9066755
:100B9000CDE90044224B234904944FF4806222485B
:100BA00004F0D8F9214B18600DB0BDE8F040FFF714
:100BB000B9BD00BFD0740000537A00008B10002034
:100BC0006E7A000074070020857A00002000002063
:100BD000BB7A0000DD060000961000208C1000207B
:100BE0001D060000C0140020000400208C07002017
:100BF000F5040000E0180020800300208807002092
:100C000069040000001D0020000200207C07002075
:100C1000DD030000202100200003002084070020C5
:100C200011090000402500208002002080070020DC
:100C30000B6801330B60014B1B6818472400002030
:100C4000014B1860704700BF2400002007B50B4619
:100C5000002102460191034801A900F0E5F803B024
:100C60005DF804FB310C00002DE9F84FB0F8189046
:100C700019F00808044693460DD001290CBF49F02D
:100C8000100949F02009A0F818908BF31188BFF3E0
:100C90006F8FBDE8F88F09F00709022907D12046B8
:100CA00005F088FA0028F0D00128238B4ED167691F
:100CB000218B002F15DA256821F00701C4E900888F
:100CC00041F0010121830026218B01F0070ACA456A
:100CD00002D0A368002B5AD10DB9002E71D0002389
:100CE00056E001F007035A1F012A1ED821F0070120
:100CF000062B256889B2C4E900880AD13DB1638B0F
:100D00002A46126801339BB2002AFAD1638341F06C
:100D100002012183204605F04DFA06460028D3D073
:100D2000238B43F020032383CDE7042B0CD121F048
:100D3000070189B22183204605F03CFA05460028C8
:100D4000C1D041F0200121830025BCE7032809D14F
:100D5000226923F00703166843F006032383002566
:100D60002F46B1E7042806D1226923F0070356680D
:100D700043F00403F2E7052806D1226923F00703B4
:100D8000966843F00503E9E700252E46E8E70123CE
:100D900041F0080121838BF31188BFF36F8FFBB9FA
:100DA00085BB16B11F492046B0474FF02003EFF333
:100DB000118B83F31288BFF36F8F238B23F008030B
:100DC0002383238BDA0625D523F010032383012107
:100DD000B4F8189009F0070900297FF45EAF54E7D2
:100DE000A1680029DCD0D1F80090D1F804B03B46CE
:100DF00052462046D847B9F1000FD1D04946D9F81C
:100E00000090F2E729463B46524620462D6805F001
:100E1000EDF9C5E713F020011EBF23F02003238363
:100E20000221D5E7196200002DE9F04F81469BB001
:100E30008A4615461C460026287810B9304600F030
:100E4000EEBD6B1C2528029306D05146C8470028EA
:100E5000C0F2E58501364CE2182200210CA805F00D
:100E600024FB6B78252B7CD00022681C964690468C
:100E700094461746014610F8013B2B2B00F0A0804A
:100E800000F29780202B00F09E80232B00F09E80A4
:100E90002FB19DF8380040F004008DF83800BCF107
:100EA000000F05D09DF8380040F008008DF838009C
:100EB000B8F1000F05D09DF8380040F010008DF813
:100EC0003800BEF1000F05D09DF8380040F020003A
:100ED0008DF838002AB19DF8382042F040028DF894
:100EE00038209DF8382002F04400442803D16FF3E5
:100EF00086128DF838209DF838202A2B42F0800287
:100F00008DF838207ED19DF8392042F001024B1C2B
:100F10008DF839201A782E2A9DF839200CBF01212E
:100F2000002161F341028DF8392077D15A782A2ABD
:100F30006DD0013300214FF00A0C184610F8012B38
:100F4000A2F13007092F40F2AB809DF838201091B4
:100F5000C2F3400040EAD17161F341028DF83820BC
:100F60005CE0AA1C02928DF83B309DF83930DF0717
:100F700040F1738154F804BBBBF1000F07DA9DF810
:100F8000382042F004028DF83820CBF1000B5807CE
:100F900040F16C8154F8048BB8F1000F80F26B8142
:100FA0009DF839306FF341038DF839304FF0FF3839
:100FB00061E12D2B0DD0302B7FF46AAF012259E770
:100FC0004FF0010C56E74FF0010853E74FF0010EC8
:100FD00050E701274EE70CFB0272303A03461846F1
:100FE00010F8017BA7F1300EBEF1090FF3D9994239
:100FF00090D09DF838100F92D20F62F341018DF816
:10100000381087E70B4600224FF00A0CE7E79DF8FF
:10101000392042F004028DF839200233194611F8C4
:10102000012B6C2A5CD040D8682A46D06A2A61D04D
:101030004C2A67D019460B4613F8012B0293782AE5
:101040008DF83B2000F2DF80572A68D8412A04D06F
:10105000A2F14503022B00F2D6809DF83A3002F04F
:10106000DF020421A2F1410861F30203D8F100027A
:101070009DF839108DF83A3042EB080262F3C7113F
:101080000A068DF83910CBB200F1E58003F0780242
:10109000182A40F0B5806FF3C6038DF839309CE014
:1010A0000CFB01213039034647E7742A26D07A2AFF
:1010B000C0D19DF8393006220DE05A78682A9DF893
:1010C000392006D1012161F3C6028DF83920991C1F
:1010D000B1E71346022262F3C6038DF83930AAE75E
:1010E0005A786C2A9DF8392001D10421EBE7134688
:1010F0000322F0E79DF839300522ECE79DF83930FE
:101100000722E8E7BDF8383023F4F04323F0020368
:1011100043F4804343F00203ADF838308BE7A2F18B
:101120005803202B6FD801A151F823F0DF110000E4
:10113000071200000712000007120000071200004B
:10114000071200000712000007120000071200003B
:101150005B10000007120000DF110000B111000059
:101160005B1000005B1000005B1000000712000025
:10117000B111000007120000071200000712000062
:101180000712000015120000DF11000039120000E4
:1011900007120000071200003912000007120000B9
:1011A000DF1100000712000007120000DF1100002D
:1011B0009DF83A30012161F302038DF83A309DF831
:1011C000393003F07803402B02BF9DF8381041F00E
:1011D00001018DF83810632A05D0002306E09DF840
:1011E0003A300221E7E7003B18BF01239DF8382081
:1011F000C2F340010B4363F341028DF83820B4E69B
:1012000013F0380FE9D09DF8383043F001038DF822
:101210003830E2E79DF83A30032262F302038DF89A
:101220003A309DF8393003F07803A3F1400CDCF13B
:10123000000343EB0C03D9E79DF83A30032262F335
:1012400002038DF83A309DF8393013F0780F14BF4F
:1012500001230023CAE70123C8E79DF93820002AAB
:10126000B4BFDDF83CB04FF0FF3B90E699077FF547
:101270009DAEDDF840809DF839100023CDE90F3395
:101280009DF83A3003F00702042A09D18A0707D4EF
:101290009DF93920002AB4BF4FF00D084FF0060821
:1012A00003F00703012BC1F3C30137D1CB1E042B7D
:1012B00021D8DFE803F003090920200054F8043B9B
:1012C000DA17CDE90C3206E0073424F00704F4E81D
:1012D0000223CDE90C239DF83870BB0756D0029B42
:1012E0002A465146484605F08FF80028C0F29783F9
:1012F0000644029DA0E554F8043B01294FEAE3723D
:10130000CDE90C3205D19DF830300C9300230D93BC
:10131000E1E70229DFD1BDF93030D1E7022B23D13B
:10132000CB1E042B13D8DFE803F0030A0A121200C5
:1013300022680C920023201D0D930446CBE7E01D8C
:1013400020F00700F0E80223CDE90C23F5E754F87C
:10135000043B0C9301294FF000030D93D3D00229D5
:10136000B9D1BDF83030D0E7042B09D1E31D23F00B
:10137000070303F10804D3E90023CDE90C23AAE70E
:10138000032B04BF54F8043B0C93A4E79DF83B20C7
:10139000782AAED8572A00F28C80252A00F0D48013
:1013A000242AA6D9412A03D0A2F14503022BA0D8B2
:1013B000DDE90C13002BC0F2BE81380700F1BD81BE
:1013C00017F0100718BF2027C3F30A55C3F3130300
:1013D000CDE90813002D40F0B28151EA030014BF9B
:1013E00001200020DB0243EA5153C902462A45EAA4
:1013F000010E43EAE57C08BF66225EEA0C0CCDE9EB
:10140000081300F00682002840F0CE81DDE90801D3
:101410004FF0000C41F00041A5F2FE350991634602
:101420004FF0050E15F1020FC0F2C581BCF1000F9F
:1014300001D0CDE90801002DDDE9081000F3D081CD
:1014400009980899C5F1040C1C3500FA05F5ACF1B2
:10145000200E21FA0CF120FA0EFE294341EA0E017A
:1014600020FA0CF0CDE9081002F0DF01472940F026
:10147000D781DD1C02DB984580F2CE81023AB8F1BB
:10148000000FD2B201DD08F1FF389DF83810880650
:1014900000F1C681B8F1000FD4BF00210121662AF6
:1014A000039140F0BF8118EB030540F1BD81002599
:1014B000BDE1A2F15803202B3FF61BAF01A050F86D
:1014C00023F000BFD9160000F3120000F312000051
:1014D000F3120000F3120000F3120000F3120000F8
:1014E000F3120000F3120000B1130000F312000029
:1014F0007515000079160000B1130000B11300004B
:10150000B1130000F312000079160000F31200007E
:10151000F3120000F3120000F31200000F17000096
:10152000D9160000DD160000F3120000F3120000CF
:101530004F150000F3120000D9160000F31200004E
:10154000F3120000D9160000514610467EE4B8F1AF
:10155000000F0C9A09DB41461046039204F091FFFC
:10156000039A0027151862B9C3E61046039204F0E7
:1015700081FFF5E70C9B8DF84C3000270DF14D05F0
:1015800013AAAB1A07B101339DF83A00C10640F126
:101590003A8202330F9940060B4444BF10995B18FE
:1015A000BBF1000F23DDABEB030B9DF8383059077F
:1015B000C3F380081BD4580640F13482002F00F09A
:1015C0003482514638460392C8470028C0F2278229
:1015D000039A474601364FF030085E445B46002BC5
:1015E000A6EB0B000BF1FF3B00F31182064647B15F
:1015F000514638460392C8470028C0F21082039A29
:1016000001369DF83A30590640F165829DF939302E
:10161000002BA6EB02030393C0F20A821746387828
:10162000039BA0F13002092AB84603EB070607F135
:10163000010740F229829DF83A200F9F930608D4B3
:101640003E44002FA6EB070307F1FF3700F3228289
:101650001E4698F800002E280BD15146C847002896
:10166000C0F2DD81002F06F1010600F31A8208F1B5
:101670000108A6EB08061DE23D072BD417F0100762
:1016800018BF2027DDE90C23002B05DA524263EB5B
:101690004303CDE90C232D270DF1650300930EAA1A
:1016A000DDE90C0113AB04F069FE0246B8F1000F4E
:1016B0000DF16505FFF657AF9DF83810AB1A6FF3C3
:1016C000861198458DF838107FF64DAFA8EB0303CF
:1016D0000F9348E72B27D5E70027DDE70C98002874
:1016E00000F08D810DF1650300930EAA13AB00216C
:1016F00004F044FEBDF83A3003F0EF0343F4F04346
:1017000043F010030246ADF83A300027CEE70C9BB9
:1017100007293FF6EEADDFE801F00C04060C0808DF
:101720000C0C1E70E5E51E80E3E5F217C3E90062CC
:10173000DFE51E60DDE52D2746E62B2744E640F277
:10174000FF7085422DD10B43A2F141021BD1192A12
:1017500011D849238DF84C304E238DF84D30462357
:101760008DF84E309DF838306FF386138DF8383091
:101770000DF14F0504E769238DF84C306E238DF889
:101780004D306623ECE7192A99BF4E2341226E2380
:10179000612294BF8DF84C308DF84C308DF84D207F
:1017A000DEE700201EE6013D49185B41002BFADA16
:1017B000CDE908132AE6400840EAC1704908B1F1B2
:1017C000333FAC4605F10105F5D20EFB01F5A0FB58
:1017D0000E012944013B0CF102054FF0010C21E6FA
:1017E000023140F10000CDE9081008A8CDE903233B
:1017F00004F095FD049B039ADDE90810013D0133D7
:1018000049184041002805F1FF35F9DACDE9081003
:1018100011E600231D4613E6A8EB0308662234E612
:1018200000213CE608F10105102DA8BF102510216C
:10183000079100204FF00061CDE90A01DDE90A10AF
:10184000A5B9089D4919099D40EB0505B5F1805FD3
:101850001BD2CDE90815662A40F09980002B23DCC5
:1018600030218DF84C100DF14D052FE0490841EA6B
:10187000C0714008CDE90A100AA8CDE90423013D52
:1018800004F04DFDDDE90423D8E7490841EAC571BC
:1018900008A86D08CDE90423CDE9081504F03FFD43
:1018A000059B049A0133D6E713AD079900290BDD98
:1018B00007A908A8CDE9042304F049FD059B05F814
:1018C000010B013B049AF0D10F9300239DF83810CF
:1018D000890602D4B8F1000F1DDD2E2105F8011B89
:1018E0009BB1B8F1000F16DD59424145A8BF4146F2
:1018F0009DF83A000F910029A8EB0108D4BF002100
:10190000012161F345108DF83A00B8F1000F02DDB6
:101910000799002956DC0399002963D1CDF840804E
:1019200002F0DF01452921D1002B2946B8BF5B42D7
:1019300001F8022BB4BF2D222B22632B6A7009DD24
:101940006420B3FBF0F202F1300CE91C85F802C010
:1019500000FB12330A200D46B3FBF0F200FB1233FA
:1019600002F1300C303305F802CB4B700F9B002B8B
:1019700043DC109B002BD4BF002301239DF83A20A9
:1019800063F3861200238DF83A202B70F8E507A93F
:1019900008A8CDE9042304F0DAFCDDE904239DF86E
:1019A00038108DF84C00302818BF03F1FF3388063B
:1019B00002D4B8F1000F12DD2E218DF84D100DF17B
:1019C0004E05A2E707A908A8CDE9042304F0BFFC4F
:1019D00008F1FF38DDE9042305F8010B95E70DF167
:1019E0004D0598E700211091284615F8011D302972
:1019F000FAD02E2918BF054692E70123BEE74B4DCA
:101A000007466A1FBDE5010748BF0133C2E55146DD
:101A100040460392C8470028039ABFF6DFAD1BB0CB
:101A2000BDE8F08F4FF02008D7E54FF03008D4E53F
:101A30009046039B4746434418F8010B70281ED17B
:101A40001E46109B03EB0608A8EB0603002B3BDCAD
:101A50002B463A465146484604F0D6FC0028DEDBC9
:101A6000304406468344ABEB0603002B7FF741ACC2
:101A700051462020C8470028D1DB0136F3E7514604
:101A8000C8470028D5DACAE75146C8470028BFF63C
:101A9000C6ADC4E751463020C8470028BFF6D1ADD7
:101AA000BDE751463020C847013FD8E55146C847F9
:101AB0000028B4DB474606EB080318F8010BA0F139
:101AC0003002092AF2D9BBE751463020C847002826
:101AD000A5DB0136B8E7D80601D4190707D551466A
:101AE00030200392C847002899DB039A01369DF8FD
:101AF0003A30DB0608D59DF83B0003925146C847B3
:101B000000288CDB039A01360F9F3744BB1B002B48
:101B100001DC2B469EE7514630200392C84700283F
:101B2000FFF67DAF039A0136F0E700BFE07A0000D0
:101B300008B54FF02002EFF3118382F31288BFF350
:101B40006F8F00F019FE034804F027FB00F032FA13
:101B5000FCE700BFE17A00002DE9F84305464FF0AD
:101B60002003EFF3118683F31288BFF36F8F0E4BC0
:101B70001C689CB10D4FDFF838804FF00C09D4E998
:101B80000132002D08BF13462BB198F8142009FB31
:101B900002F2B85C98472468002CF0D186F31188D3
:101BA000BFF36F8FBDE8F8839007002098070020EF
:101BB000700E00204209012300F01F0003FA00F01C
:101BC000074BBFF35B8FC04303EB820353E8002F47
:101BD000024043E800210029F8D1BFF35B8F704732
:101BE000A407002038B51A4B1C7DBFF35B8F04F0AF
:101BF0001F0301229A40174B6109D04303EB810375
:101C000053E8001F01EA000543E8005CBCF1000F47
:101C1000F6D1BFF35B8F114213D00F4B0F4D8BB139
:101C20000C236343EA18E85C517804F056FC00206A
:101C3000FFF792FF0C235C432A1900232B51C2E9C2
:101C4000013338BD83F31188BFF36F8FEFE700BF17
:101C5000700E0020A8070020DB6400009807002019
:101C60002DE9F843324B334A1C7DBFF35B8F630988
:101C70004FEA830952F823302F4EBFF35B8F04F0F5
:101C80001F0843FA08F313F0010F07460AD1014673
:101C9000204600F069F828B107C80C2303FB046351
:101CA00083E807000C236343F218F55C2DB9204646
:101CB000FFF780FF2846BDE8F8837B1C0FD0D2F8E1
:101CC00008C01E481E4A4FF4004500210023ECFBCB
:101CD0000501FEF715FA0121381A05F036FB03F06D
:101CE00037FB0120FFF738FFBFF35B8F012303FAB7
:101CF00008F8144B994459E8003F43EA080349E8BF
:101D00000032002AF7D1BFF35B8F0F4B33B10C23A6
:101D10006343F218F05C517804F0D3FBFFF762FFE5
:101D20002046FFF747FF03F0E3FC0120C3E700BFB5
:101D3000700E0020A4070020980700203F420F00EB
:101D400040420F00A8070020C3640000054BBFF30A
:101D50005B8F53F82000BFF35B8F003818BF012062
:101D6000704700BFAC0700202DE9F04F85B00F464B
:101D700003A900F047F8DFF88080DFF880A0441E58
:101D800024B24FF0000B631C04D10026304605B08E
:101D9000BDE8F08F039A04EB440302EB830612F8CC
:101DA0002300FFF7D3FF054610BB70684FF40049CE
:101DB000C4462946E0FB09C152465B466046FEF731
:101DC0009FF90190B068C4462946E0FB09C15B4613
:101DD00052466046FEF794F9094B1B68591C01D026
:101DE000834205D97A1CD1D0019B1844B842CDD981
:101DF000013C24B2C7E700BF3F420F0040420F0042
:101E00002800002008B9024B0B600020704700BF7B
:101E1000B8760000014803F0CBBF00BFB8760000E1
:101E200010B5044618B90D4B0D485B6898476168BA
:101E300008290DD031F004030AD011F0020108D0B6
:101E40000848214605F04FF9002323600023636012
:101E500010BD2068142204F028FBF7E734010020AD
:101E60000A7B0000C807002008B508B34368042BAC
:101E700010D101220368BFF35B8F53E8001F0029D4
:101E800003D143E800200028F7D1BFF35B8F0BD1CB
:101E9000002008BD53B100684FF0FF324FF0FF3310
:101EA00003F0FCF80028F3D00348F2E70348F0E71A
:101EB0006FF4E040EDE700BFE98FFFFFEA8FFFFF1F
:101EC00008B5D0B14368042B11D100220368BFF3D9
:101ED0005B8F53E8001F012903D143E8002000284D
:101EE000F7D1BFF35B8F074808BF104608BD3BB171
:101EF000006803F04BF90020F8E76FF4E040F5E7E5
:101F00000148F3E7E98FFFFFEA8FFFFF10B50446B2
:101F100018B9164B16485B6898476368042B23D0A2
:101F2000082B21D0CBB92368BBB912484FF0FF3240
:101F30004FF0FF33214602F0ADFF08B923681BB90B
:101F40000A4B0D485B68984720681422002104F072
:101F5000ACFA636843F002036360206805F001F99E
:101F6000636843F00103636010BD00BF34010020CB
:101F70000A7B0000C8070020307B000008B5064936
:101F800006484023142205F093F8BDE808400449B0
:101F9000044803F06DBF00BFE4070020C80700201D
:101FA000D0760000C0760000014910220A60704718
:101FB00010ED00E072B6404080F31188BFF36F8FE0
:101FC000BFF34F8F30BF62B6BFF36F8F704700BF54
:101FD00072B6494081F3118820BF80F3118862B640
:101FE000704700BF43B2002B08DB012200F01F0046
:101FF00002FA00F05B09024A42F82300704700BF72
:1020000000E100E0054B420900F01F0053F82220D8
:10201000012303FA00F01040704700BF00E100E028
:1020200043B2002BA8BF03F1604301F10101B8BF27
:10203000064B4FEA4111ACBF03F5614300F00F00BE
:10204000C9B2B4BF195483F80013704714ED00E00F
:1020500030BFFFF7FDBF00BF0B4A08B50B4B22F0A6
:102060007F029A60BFF34F8FBFF36F8FD3F8882042
:1020700022F47002C3F8882002F03CFE03F05AFC00
:1020800000F0D0F902F07AFE0000000000ED00E060
:10209000094A0A49936809689967094958674B686A
:1020A00043F080534B60002383F31188BFF36F8F9D
:1020B0009368986F704700BF700E0020887800000A
:1020C00000ED00E012498A684FF030001044EFF351
:1020D000098C80E8F01F202080F31288BFF36F8FF7
:1020E0000C4F4FF00066CA698A603E60506F002353
:1020F000536780F3118804B5104600F04DFABDE82F
:10210000044002F1300090E8F01F8CF3098870471A
:10211000700E002004ED00E01EF0040F0CBFEFF382
:102120000880EFF30980816911F8021C0229FFD0B1
:1021300001B504F086F901BD42F8203C009B42F84D
:102140001C3C0A49019B42F8183C029B42F8143C93
:1021500021F001014FF0807342F8043C42F8081C62
:102160000023203A02654367704700BF0B630000FD
:10217000094A0346906870B113F1160F406E05D0FE
:10218000A0F120029A4205D8834203D2814228BF9F
:102190000020704700207047700E002008B5094BE2
:1021A00098600D46144600F0F7F9204685F309883B
:1021B000002163B681F31188BFF36F8F00220023E3
:1021C00004F0A3F8700E002001B572B60B4A9069B6
:1021D00000281EBF0021916104F0B4FF62B6EFF346
:1021E0000580A0F110004FEAC0000549014409C96B
:1021F0009847BDE80140034908470000700E0020E1
:10220000E874000009220000044B9968D8698842EC
:1022100003D003494FF080520A607047700E0020CF
:1022200004ED00E038B51C4B14469A6A9A6A9A6A23
:102230000546900720D5586B9A6A12061CD519B12D
:102240009A6A22F080029A629A6A9A6A9A6AD20616
:1022500015D49B6A9B0712D400200F4B9A6A9206F2
:1022600042BF5A6A22F400525A629A6A42F0FF024E
:102270009A620023237038BD6FF01500E4E7064B27
:102280005B681905E8D52946FFF772FF0028E3D0FF
:1022900080F309880220E0E700ED00E00D4B9A6A28
:1022A0009A6A9A6A920508D59A6B9A6A120404D5BA
:1022B00018B19A6A22F400429A62064B9A6A9A6AA4
:1022C000D20558BF9A6A9A6A002042F47F429A6205
:1022D0000870704700ED00E070B5484B5B688AB04D
:1022E0000D46C3F30803002686F31188BFF36F8FF2
:1022F00002F07F41B1F17F4F11D102F00C010829AA
:102300000DD0110701D4054601260022033B8DF8AC
:102310000720032B6BD8DFE803F00455595D3546E1
:10232000F3E7364BDC6A14F0020460D1DA6A002A63
:1023300015DBDA6A520012D5AA6932F8021C4DF692
:10234000027291420AD093F828200AB30DF10702D5
:1023500001212846FFF766FF044600E02C689DF83F
:1023600007309BB92022294602A804F093F8099B64
:10237000002E3ED0C3F3080222B96FEA53236FEA5E
:102380004323099302A9204604F059F80AB070BD0E
:1023900093F829202AB10DF107010120FFF77EFFF4
:1023A000DAE75A8D92B2002AD9D09A6A9A6A9A6A62
:1023B0009A6A9A6A9A6A9A6A6FEA02426FEA1242C3
:1023C0009A62CCE70DF107020021C2E70DF1070187
:1023D0000020E3E7094B9A6A9A6A9A6A9A6A9A6AAB
:1023E0009A6A9A6A6FEA02426FEA12429A6200247B
:1023F000B5E723F4FF7323F00103C2E700ED00E02B
:10240000024A536943F010035361704700ED00E046
:10241000EFF30880EFF3098101B57246FFF75CFF27
:1024200001BD00BF044800232021C2180133302B16
:1024300082F80013F9D1704700E100E0002080F33A
:102440001488BFF36F8F04F0CDFF00200D490860A2
:10245000BFF34F8F0C4880F3088800F02BF8202042
:1024600080F3118809484FF40261401880F309880D
:10247000EFF314800221084380F31488BFF36F8FB9
:10248000FFF7EAFD94ED00E0602D0020E02E002033
:102490000749D1F890200023C2F30722184693423F
:1024A00000D17047C1F89830C1F8A0000133F6E7B9
:1024B00000ED00E008B572B6002383F31388FFF740
:1024C000E7FF144B4FF0FF32C3F88020C3F884209D
:1024D000C3F88820C3F88C20C3F89020C3F8942058
:1024E000C3F89820C3F89C20C3F88021C3F8842146
:1024F000C3F88821C3F88C21C3F89021C3F8942134
:10250000C3F89821C3F89C2162B6BFF34F8FBFF385
:102510006F8F08BD00E100E0084B9B6883420BD140
:10252000EFF3058343B1064B5A6842F080525A607C
:102530005A6A22F400425A6203F0AAB9700E0020CF
:1025400000ED00E0074AD2F8FC3043F08073C2F897
:10255000FC30054B00225A601A6842F001021A60F2
:10256000704700BF00ED00E0001000E0034B0022C8
:102570005A601A6842F001021A607047001000E0C9
:10258000024B034A0348012100F06EB8000004200A
:1025900000000020E4760000426E054B203A1A60ED
:1025A000044A2021C3E901121846012100F066B84F
:1025B000E40C002000000B15F0B51F4F00268E42E2
:1025C00001DB1046F0BD44689CB353B104F1FF3CFD
:1025D00014EA0C0F18D11F2C16D905681CEA050F38
:1025E00012D1202C0568D0F808C0D2B20FD9B4F1AE
:1025F000004F0ED8013CB4FA84F4C4F11F04640007
:10260000072A4CEA040406D96FF01502D9E708241A
:10261000F6E73E24F4E725F01F05154345F01005C5
:1026200044F00104C7F89820C7F89C500132C7F85D
:10263000A04001360C30C2E700ED00E0044B05225B
:10264000C3F89420BFF34F8FBFF36F8F704700BF65
:1026500000ED00E0BFF35F8F024B0022C3F894202F
:10266000704700BF00ED00E010B5034C0123227855
:10267000FFF7A2FF207010BD9710002008B5094A8F
:1026800000231278FFF798FF10F1160F02D0064AC8
:10269000072800DD08BDC2F89800C2F8A03001305C
:1026A000F6E700BF9710002000ED00E0144908682D
:1026B000082810B521D8FFF7CDFF124C4968002239
:1026C000904201F10C0105D10F4B1870FFF7B6FFD6
:1026D000002010BDC4F8982051F80C3C23F01F03D3
:1026E000134343F01003C4F89C3051F8043C43F00A
:1026F0000103C4F8A0300132E2E74FF0FF30E8E711
:10270000F076000000ED00E097100020014B18600B
:10271000704700BF4C00002010B54FF02003EFF3CE
:10272000118083F31288BFF36F8F114A0123C2F81F
:1027300040354FF080424FF08051C2F87835D1F8E3
:102740003041082C08D1D1F83411052904D8094C9E
:10275000615C09B1C2F838364FF080430122C3F8FA
:10276000802580F31188BFF36F8F002010BD00BF5C
:1027700000E001406C7B00004FF08043C0B2C3F822
:102780001C05BFF34F8F0549054BCA6802F4E06290
:102790001343CB60BFF34F8F00BFFDE700ED00E0B8
:1027A0000400FA0520B1034B800143F001031847F0
:1027B000704700BF9076000010B5044C23781BB919
:1027C000FFF7C0FE0123237010BD00BF981000204A
:1027D000074BBFF35B8F53E8002F511C43E80010F9
:1027E0000028F8D1BFF35B8F0AB9FFF7BFBE70476F
:1027F000F00C0020084B70B5C31A0D4607499B101A
:10280000044659430648402203F089FE2B46014600
:102810002046BDE870401847040D0020B76DDBB6B8
:102820005874000073B50C4C0C4A4023041B0093F1
:102830000D460B460A49A41061430646094803F0B9
:102840009AFE011E05DA30462B4602B0BDE8704004
:10285000184702B070BD00BF040D0020E7650000FE
:10286000B76DDBB658740000002270B50121044634
:102870001046FFF7D5FB0F4801F078FB0E4B98424E
:1028800015D104F08CFA26690C49304603F0E1FCBE
:1028900000280BDB246909490125356404F11C007B
:1028A00003F0D7FC002801DBE564002070BD6FF069
:1028B0000400FBE7F52800000000AD0B38770000AE
:1028C00001460C2309484B4370B5C418D4E90E5691
:1028D00000224033A263184403F00EFE2DB13246AD
:1028E0002B460348BDE87040184770BD040D00201A
:1028F0005874000010B1012804D07047034B1B6CC2
:102900005B0701D1FFF7DCBF704700BF040D00205B
:1029100008B54FF02003EFF3118183F31288BFF362
:102920006F8F124A136843F0020013F00103106026
:102930000CD04FF08042D2F80C34D2F80C2413F0B3
:10294000010303D00A4803F0D7FD012381F3118866
:10295000BFF36F8F23B1BDE808400020FFF7B0BF81
:10296000BDE80840012004F027BA00BF540D002044
:10297000440D00201FB500220123CDE90223094A9E
:10298000CDF800D06B46CDF804D003F025FE00282A
:1029900005DB4FF480420023684602F059FC05B085
:1029A0005DF804FB05660000094BBFF35B8F53E83D
:1029B000002F22F0020143E800100028F7D1BFF3F6
:1029C0005B8FD30702D4012004F033BA704700BFF5
:1029D000540D00202DE9F0413949BFF35B8F0746C4
:1029E000012251E8003F41E800200028F9D1BFF35F
:1029F0005B8F33B9334934484B60CB608A6003F056
:102A00003BFC7B1E012B2FD8012F07D14FF08043B9
:102A1000D3F81C3403F00303012B25D004F08CFB06
:102A2000044618B9294B1B78002B41D14FF02003E5
:102A3000EFF3118683F31288BFF36F8F0124DFF861
:102A400090804FF08045D5F81834D5F81824D2037B
:102A50000CD503F00303012B01D0012F06D10CB3D9
:102A600086F31188BFF36F8FBDE8F081ACB13046BB
:102A7000FFF7AEFAD5F81835002BE4D1D5F80421CC
:102A8000002AE0D0C5F80431D5F804310123C5F897
:102A90001835C8F88031AB60D5E70021212002F05D
:102AA000D7FEE7E74FF080430222C3F80423DBE7B9
:102AB0004FF080430222C3F808230646BFE700BF59
:102AC000580D0020F40C0020200D0020A914002037
:102AD00000E100E008B5084B0848186004F0BFFAB0
:102AE00038B10748FFF712FE0548FEF7A9F80020A5
:102AF00008BD6FF01200FBE75C0D0020B874000009
:102B0000052B00000A2838B5074D044604D1286873
:102B100083680D21DB69984728688368E1B2DB6927
:102B20009847204638BD00BF5C0D002030B5406896
:102B3000047B01F01F05B2F5001F45EA441585B07E
:102B40004FF0000404D1284601F092FC002032E04E
:102B5000B2F5800FCDE902442FD1B3F1007F0CBF55
:102B6000042305238DF80830836823FA01F1C9078F
:102B70002FD4B2F1A07F2CD16A09012A05F01F03DE
:102B80001C4A03F5E07318BF4FF0A04252F82330FF
:102B9000DB071ED40DF107042146284601F0CCFBCB
:102BA000154B984214D1204601F014FC134B984267
:102BB0000ED06FF00B0005B030BDB3F1C06F05D083
:102BC000B3F1007F0CBF02230123CBE70323C9E746
:102BD00003940023194602AA284601F087FA074BFE
:102BE000984204D10121284601F0FAFBAEE76FF0CC
:102BF0000400E0E7000300500400AD0B0000AD0B43
:102C000010B501F0D7FB044668B901F0ABFB084BE7
:102C100098420AD10748214601F088FB2246052147
:102C20000620FFF7FDF9002010BD6FF00400FBE760
:102C30000000AD0B392C0000420970B5034602D0EC
:102C4000012A15D070BD0B4E326951680029F9D0A8
:102C500003F01F0301250C689D408A682A4002D0BA
:102C60004B6830469847002CECD021462468F4E7A6
:102C7000014EE9E770740000887400002DE9F0430C
:102C800047683B7B01F01F0585B00E4645EA4315BA
:102C90001446CAB902A9284601F04EFB044628464C
:102CA00001F00EFC4A4B984204D06FF0040005B0CE
:102CB000BDE8F083844205D19DF8080001F084FB53
:102CC000A042F2D10020F2E74FF000090DF103011C
:102CD0003046CDE9029901F02FFB4B46804602AA0F
:102CE0004946284601F002FA394B984202D06FF06B
:102CF0001500DCE7804503D19DF8030001F064FB7B
:102D0000A30351D540F20663234040F206229342CA
:102D10003BD00CD8062B15D004D89BB1022BE6D1A2
:102D200004230FE0B3F5007FE1D101230AE040F274
:102D3000024293422BD0B3F5C06F2AD0B3F5806F17
:102D4000D5D102238DF8043084F48033C3F30043DB
:102D5000E0068DF8053054BFC4F34013032321036C
:102D60008DF8063017D57B68012101FA06F6C3F805
:102D70000865002201A9284601F066FA144B984222
:102D800014BF6FF01500002091E70723DAE7052351
:102D9000D8E70323D6E7620341BF7B68012101FA2C
:102DA00006F6C3F80C65E4E7E3064FF0000354BFF2
:102DB000C4F3401403241A4601A928468DF80440A0
:102DC00001F094F9024B98423FF47CAF8FE700BFCB
:102DD0000000AD0B08B54368D3E9020101F0B6FE6F
:102DE000034B984214BF6FF00F00002008BD00BFD6
:102DF0000000AD0B37B50446002201210320FFF788
:102E00000FF963689D6901AA0021284603F0F0FECE
:102E1000002814DB019B2A681979186803F005FF64
:102E200000280CDB60682369064A00F1080101F004
:102E300027FD054B98420CBF00206FF00F0003B038
:102E400030BD00BF4D2E00000000AD0B0378012BFC
:102E500008D0022B08D04BB9054B0B6201F11000D2
:102E600002F0D6B9034BF8E7034BF6E7034BF4E760
:102E70000000AD0B0100AE0B0200AE0B0100AD0B6C
:102E80002DE9F04F0C4689B017469946456806690A
:102E90004FF0FF324FF0FF33304602F0D9F906F120
:102EA000100A00220023504602F0D2F9284601F011
:102EB00045FDDFF8BCB04FF00008B84501D3002451
:102EC0002BE0237A019313F008014BD1142203A8BD
:102ED000009103F0EAFA019B6068049003F001029C
:102EE000206800998DF80C2013F0020F8DF80D90DA
:102EF00006901CD17B1E434502D9237D5B0718D564
:102F000082BB202203A9284601F046FD584512D075
:102F1000184B984229D06FF00404284601F01EFD9A
:102F2000304602F075F9204609B0BDE8F08F0A4638
:102F3000E8E74022E6E74FF480420023504602F0E3
:102F400087F938B1284601F009FDD5E9020101F001
:102F5000FDFDE0E7336A5B4504F10C04DBD108F1C9
:102F60000108AAE76FF08504D7E76FF00F04D4E7F4
:102F70000000AD0B0B00AD0B2DE9F3411C4643687F
:102F800007690E46054619684FF02003EFF31188D4
:102F900083F31288BFF36F8FF868C36843B188F377
:102FA0001188BFF36F8F6FF00F0002B0BDE8F081A2
:102FB0004FF4800CC2608660C1F804C306F0604123
:102FC000B1F1005F28D1C0E904623946284603F018
:102FD000EEFC88F31188BFF36F8FFB7A012B19D1B8
:102FE000631C17D024EAE4750D48FE680D4A0024DE
:102FF0004FF4004721460023C5FB0701FDF780F889
:10300000283602460B4600200021CDE9000130465B
:1030100002F028FE0020C8E7036203F07DFCD4E73D
:103020003F420F0040420F00F0B54B79012B26D0F4
:10303000032B21D110268B79032B1DD1CC790CB118
:10304000012C19D10A7912B1022A15D10E220B686E
:103050004568B3F5164F2D6865D02DD8B3F5165FCA
:1030600064D016D8B3F5966F62D00AD8B3F5967FC0
:1030700061D0B3F5167F61D06FF0850052E0002675
:10308000D9E7B3F5166F5CD0B3F5965FF4D1374B43
:103090003CE0B3F5E14F57D007D8B3F5615F55D0A9
:1030A000B3F5964FE8D1324B30E047F61227BB42DA
:1030B000E2D14FF4000329E0B3F5613F48D013D8C3
:1030C000B3F5963F47D009D84DF6C027BB4244D050
:1030D000B3F5614FD0D14FF46B0317E0B3F5E13F87
:1030E000CAD14FF0EB7311E0B3F5612F38D008D897
:1030F000204FBB4237D0B3F5E12FBDD14FF0E8638D
:1031000004E01D4FBB42B7D14FF080530069C5F8B2
:103110002435031D03C934432243C5F86C2583E8D5
:1031200003000020F0BD4FF41D03EFE7134BEDE764
:103130004FF49E23EAE74FF4A033E7E74FF41C3344
:10314000E4E74FF41D23E1E70D4BDFE70D4BDDE72F
:103150004FF06C73DAE70C4BD8E74FF46503D5E713
:103160004FF07063D2E74FF08063CFE700B01300F9
:1031700000A04E0090D0030040420F0000502700F6
:1031800000C0750000F03A0000903A012DE9F743C5
:10319000D0F804900669D9F80040D9F80C800021D5
:1031A000C4F800150746306001AA404603F020FD30
:1031B000051EC0F28780019BD8F800201979186895
:1031C00003F033FD051E7DDB311D3846FFF72CFF74
:1031D0000546002876D1D9F8043099071AD506F1AA
:1031E000160001F067FA454B984240F08380B07DAD
:1031F000C30003F1804303F5F83304F10C0204F536
:103200009071C3F81015C3F814253D4A012383407B
:10321000C2F80435F368002B58D07B68D7F81080CB
:103220001B68D8F80C0037490422C3F80423012294
:10323000C0F8C820C3F804130821C3F80015D3F858
:103240004C11A1B15A60D3F844211AB9D3F8242102
:10325000002AF8D00022C3F84C21D3F84C11C3F84F
:103260001021D3F81011C3F84421D3F84431264972
:103270000022883004F08DF8D8F80C30D8F80C0013
:10328000C3F8BC8021490022283004F082F8D8F825
:103290000C30C3F85C80D9F804309A075CBF4FF457
:1032A0008072C4F80423DB0644BF4FF48003C4F8E3
:1032B000043314360023C4F84465C4F848350123A8
:1032C000A360E360284603B0BDE8F0830823C4F898
:1032D000003599F80830002BDDD1C4F81031D4F84E
:1032E000103106F11503C4F834350123C4F838351C
:1032F0002360D0E76FF00405E4E700BF0000AD0BEA
:1033000000F0014010020A002D6B0000E76B000086
:10331000F8B5066904460F4603F00EFF10B9284BB6
:103320001B785BBB4FF02003EFF3118183F312880E
:10333000BFF36F8F60680D4603F029FBC8B1F368D7
:103340005BB1DA684AB1D3F8C420002A05DA6268B2
:103350001268D2F84C25C3F8C4203146012201F886
:10336000147F204603F0CAF985F31188BFF36F8FED
:10337000F8BD81F31188BFF36F8FD3E764256068D0
:1033800003F005FB48B9012003F007FD013DF6D12C
:103390000021212002F05CFAF0E74FF02003EFF368
:1033A000118583F31288BFF36F8F606803F0EFFA23
:1033B0000028D2D185F31188BFF36F8FE8E700BFF3
:1033C000A914002043682DE9F0411D68D5F80811C3
:1033D00088B0044671B103690022C5F80821D5F808
:1033E0000821DA68D2F8C0300133C2F8C03008B022
:1033F000BDE8F081D5F8243113B3C5F82411D5F810
:103400002431D5F88064C5F88064142203A803F041
:103410004CF806238DF80C30F30700F10081B70754
:1034200000F1FF80700700F1FE8006F008062046DC
:1034300003A98DF8106003F087F9204603F017FA0E
:10344000D5F810317BB3D5F80433D9062BD54FF01E
:1034500000082769C5F81081D5F810316368F8684D
:103460001E68012380F8D530883003F09EFFFA688B
:10347000D6F83C1592F8D130906E82F8D1801B1AA4
:103480000B44906F23EAE37108444345906702DDE3
:10349000204603F060F9F96891F8D230002B40F033
:1034A000C48081F8D530D5F84C317BB3D5F81061A4
:1034B00066BB14222769C5F84C61314603A8D5F8CC
:1034C0004C3102F0F2FF032303A920468DF80C30A3
:1034D00003F03AF9FF68FB6F5A1C17D0C7F8843025
:1034E000D7F8803089488A4A23EAE37C4FF4004EBB
:1034F00031460023CCFB0E01FCF702FE02460B46D0
:10350000CDE9000107F1880002F0ACFBD5F84431A9
:1035100033B3D5F810611EBB2769C5F84461F9685B
:10352000D5F84431D4F804806031204603F02CF9FA
:10353000F96820466C3103F027F9FB6893F8D22034
:10354000002A00F09F8083F8D260D8F80430D806B3
:1035500003D50221204603F0F3F9204603F02CF9AD
:10356000D5F82031DBB1D5F80433D90517D5636818
:103570001B684FF02001EFF3118281F31288BFF333
:103580006F8FD3F8201131B10021C3F82011D3F887
:1035900020110121D96082F31188BFF36F8FD5F814
:1035A0005831002B3FF423AFD5F804335A027FF58E
:1035B0001EAF63682569D3E90073DB0667D4EB6847
:1035C0009B68002B3FF413AF4FF02003EFF3118201
:1035D00083F31288BFF36F8FEB68D3F8C410002910
:1035E000ACBFD3F8C460D7F84C6582F31188BFF341
:1035F0006F8FE86890F8D430002B55D04FF020033F
:10360000EFF3118683F31288BFF36F8F29462046AC
:1036100003F0CDF986F31188BFF36F8FE7E601263B
:1036200005E7022603E7042601E76031204603F0A0
:10363000ABF84FF02003EFF3118183F31288BFF34F
:103640006F8FFB68DA6ED2B11A661A6F5A66002263
:10365000C3E91B229A66D6F84C310BB901233360BB
:10366000D6F8003223F02003C6F8003281F3118827
:10367000BFF36F8FFB68002283F8D52013E7012387
:103680007360F3E76068114603F012F95DE74FF4E9
:103690008003C7F808330121204603F051F9EB6895
:1036A000DB68002B8BD1A2E6826803699A420BD0BB
:1036B0004269036AB242334425D1036203F02CF914
:1036C00000289BD1EB681E6AE868283003F06DFE85
:1036D0001422002103A802F0E8FEEB689A68CDE905
:1036E0000426DA6896421CBF01228DF80C204FF4A4
:1036F0008002C7F8082300229A60DA6003A92046F6
:1037000003F022F873E61E46DEE700BF3F420F00DB
:1037100040420F0010B501238340114ABFF35B8F75
:10372000DC4352E8001F01EA040C42E800CEBEF17F
:10373000000FF6D1BFF35B8F4FF4803202FA00F036
:1037400002F1804202F58052C2F80803BFF35F8F96
:10375000BFF36F8F0B4214BF0120002010BD00BFCC
:103760007C0D00201949F8B5044622F07F45086811
:10377000C1E90023A5F50013101AB3F5400F22D2BA
:10378000134B1B681A0A1B065E19124B42F1000705
:10379000C3E90067012602F0ABF9A30003F18043FF
:1037A00003F58833D3F84025AA420BD11EB94FF454
:1037B0000002C3F84025084B4FF4803000FA04F4AF
:1037C000C3F84443F8BD0026E5E700BF48060020E3
:1037D000800D0020300600200010014019B3BFF317
:1037E0005B8F0123104A834052E8001F194342E8CF
:1037F000001CBCF1000FF7D1BFF35B8F0B4A4FF4F5
:1038000080338340C2F80433094BBFF35B8F1B68DE
:10381000BFF35B8F23FA00F0C30742BF054B4FF4A1
:103820000032C3F8002170477C0D002000100140D9
:10383000780D002000E100E00D4B1868010A000639
:10384000BFF35F8F0B4BD3F80435181841F100011B
:10385000B3F5801F0AD2084BD3E90023904271EBE5
:10386000030303D210F1807041F10001704700BFE3
:10387000800D002000100140300600202DE9F04F9F
:1038800085B0164698460546FFF744FF0090FFF7BF
:10389000D3FFB04271EB080378D2464B301A68EB85
:1038A0000101984271F1000380F08180424B03EBEB
:1038B0000513D3E902ABD84508BF564551D04FEAAE
:1038C000850909F1804905F1500709F58839BF00DC
:1038D0004FF4803101FA05F3BFB226F07F4207F1C1
:1038E00080470193D9F84005344B07F588371446D3
:1038F000D3F80415401A20F07F4021F07F4C0128B6
:10390000C9F840C507D1CDE90221132003F03DFDE0
:10391000DDE90221294B01F1020CA4EB0C0020F09F
:103920007F40B0F5000F88BF6446002038603868DB
:103930000198C3F8440324F07F40C9F84005D3F848
:103940000405814206D0201A023820F07F40B0F5ED
:10395000000F19D8A41A24F07F4414EB060A48F18A
:10396000000B15490E982B0101EB0512C2E902ABC1
:10397000C8500F9B5360002428460099FFF72EFF84
:10398000204605B0BDE8F08F2046B1E701230C4A80
:10399000BFF35B8FAB4052E8001F194342E80010B1
:1039A0000028F8D1BFF35B8FB246C346D9E76FF06A
:1039B0001504E1E701000001380600200010014075
:1039C000780D002073B5194B194D00244FF0FF30CE
:1039D0004FF0FF31C5F80845C3E902014FF48033C9
:1039E000C5F80433134B02264FF400320121C5F809
:1039F00004631120C3F880212246FEF711FB112039
:103A0000FEF7F0FA0C4A0123AB602B6013600B4BFE
:103A10000B4A0093019400232046FFF72FFF304606
:103A2000FEF7D8FF204602B070BD00BF3806002068
:103A30000010014000E100E07C0D0020653700002F
:103A4000FFFF7F002DE9F743354CD4F804339A0784
:103A50000BD5D4F8043143B1324A0023C4F8043101
:103A6000D4F804311368013313604FF02003EFF3EF
:103A7000118283F31288BFF36F8FD4F80433DB0312
:103A800012D5BFF35B8F284B53E8001F21F00100D4
:103A900043E80006002EF7D1BFF35B8F002936D133
:103AA000D4F84031002B32D1002382F31188BFF3C8
:103AB0006F8F4BB3FFF7C0FE4FF02003EFF3118C75
:103AC00083F31288BFF36F8F184BD3E90267B042BC
:103AD00071EB07024FF0000220D34FF0FF384FF098
:103AE000FF39D3E90015C3E902891A604FF4803326
:103AF000C4F848338CF31188BFF36F8F21B1009560
:103B000032463B460020884703B0BDE8F0830023DF
:103B1000C4F84031D4F840310123C6E71146E9E743
:103B200000100140800D0020780D00203806002094
:103B3000431C13B521D0012821DDB0F5000F20DA98
:103B4000441EFFF779FE104BD3E90013401AB0F57D
:103B5000000F28BF0024013002190C48824228BF00
:103B6000024652184FF0000009490190009143F1BC
:103B70000003FFF783FE02B010BD0448E0E7002415
:103B8000DFE7024CDDE700BF48060020FFFF7F00B3
:103B90006537000008B5FFF74FFE024B1B68C01ADF
:103BA00008BD00BF4806002000F01F0140090128A1
:103BB000044B4FF0010218BF4FF0A0438A40C3F8F6
:103BC0000C2570470003005000F48053002B30B5E3
:103BD00007BF14460D4601240025C0F3811200F0F2
:103BE0001F0110F0200F00F4706040EA8202064BC3
:103BF00042EA050208BF4FF0A04301F5E07142EA36
:103C0000440243F8212030BD0003005000F01F01A2
:103C100040090128044B4FF0010218BF4FF0A043A8
:103C20008A40C3F808257047000300504FF08053C6
:103C3000D3F83021082A06D1D3F83431052B02D825
:103C4000024AD05C70470020704700BFA07B000094
:103C5000024AD2F80034002BFBD0704700E001404C
:103C600010B503F090F840B14FF080430022C3F844
:103C70000C21C3F81021C3F8382503F084F800287C
:103C800046D04FF08052604BD2F80414C3F8201590
:103C9000D2F80814C3F82415D2F80C14C3F8281568
:103CA000D2F81014C3F82C15D2F81414C3F8301538
:103CB000D2F81814C3F83415D2F81C14C3F8401500
:103CC000D2F82014C3F84415D2F82414C3F84815C8
:103CD000D2F82814C3F84C15D2F82C14C3F8501598
:103CE000D2F83014C3F85415D2F83414C3F8601560
:103CF000D2F83814C3F86415D2F83C14C3F8681528
:103D0000D2F84014C3F86C15D2F84424C3F87025D7
:103D1000FFF78CFF18B13D4B3D4AC3F88C26FFF7E7
:103D200085FF18B13B4BFB22C3F81825FFF77EFF38
:103D300070B14FF080414FF08053D1F8E42ED3F8AA
:103D4000583222F00F0203F00F031343C1F8E43E90
:103D5000FFF76CFF20B1304B4FF40072C3F84026E0
:103D600003F011F848B14FF08043D3F80024D20794
:103D700044BF6FF00102C3F800244FF08053D3F822
:103D80003021082A0ED1D3F83431052B02D8234A2A
:103D9000D35C3BB14FF01023D3F808224FF080439F
:103DA000C3F858254FF01023D3F80022002A03DB74
:103DB000D3F80432002B22DA194901234FF01020E6
:103DC000C1F804351224FFF743FFC0F80042FFF7A3
:103DD0003FFFC0F80442FFF73BFF0023C1F8043562
:103DE000FFF736FFBFF34F8F0E490F4BCA6802F43F
:103DF000E0621343CB60BFF34F8F00BFFDE70B4B77
:103E00000B4A1A6010BD00BF00C0004000500040C7
:103E10004881030000F00040009002409A7B0000BF
:103E200000E0014000ED00E00400FA05A8000020D9
:103E30000090D00370B501250268B2FA82F3C3F195
:103E40001F035E1CDCB214D0BFF35B8F05FA03F3D3
:103E500022EA030350E8006F964204D140E8003C98
:103E6000BCF1000FF6D1BFF35B8FE5D102480C70B7
:103E700070BD0248FCE700BF0000AD0B0200AD0BB7
:103E80000368CB40DB0710B515D4012303FA01F119
:103E90000368BFF35B8F41EA030250E8004F9C4286
:103EA00004D140E8002CBCF1000FF6D1BFF35B8FCA
:103EB000EED1024810BD0248FCE700BF0000AD0B88
:103EC0000400AD0BF7B5044618B1012829D003B0A2
:103ED000F0BD4FF080430222C3F80823C3F8040169
:103EE000D3F804210122DA6001239C428DF80730C7
:103EF00014BF00250DF1070542F210774FF0804600
:103F0000D4B1012CE3D125B1D6F80C3403F0010370
:103F10002B70D6F80C34DB0318D4134B00225A71E3
:103F2000D5E74FF080430022C3F80803C3F800210F
:103F3000D3F800215860D7E725B1D6F8183403F03C
:103F400003032B60D6F81834DA03C0D52DB901204D
:103F500002F023FF013FD3D103E09DF80730012B8E
:103F6000F5D0012CD9D0B2E7840D0020044B1A798A
:103F700022B9012218609A800248704702487047AF
:103F8000840D00200000AD0B0C00AD0B4FF0804302
:103F900010B5D3F800216AB10022C3F80021D3F88C
:103FA00000210122C3F80823114B587910B95A7126
:103FB0001B6898474FF08043D3F8042172B1002268
:103FC000C3F80421D3F80421D3F81824D3F8181423
:103FD000920704D10122C3F818259A6010BD02226D
:103FE000C3F80823024BBDE810401B6801201847A6
:103FF000840D0020036803F01F025B09012B02609F
:10400000024818BF4FF0A040704700BF00030050A7
:10401000034B083033F81000C0F34010704700BF66
:10402000AC00002070B500F108030C4C34F81330DC
:10403000DA0505460E4607D5C3F3432304EBC30256
:1040400054F8333052689847A3682BB1E268314680
:104050002846BDE87040184770BD00BFAC00002086
:10406000124A083010B432F81030D9051BD5C3F30A
:10407000432123F4F85322F8103002F110040020F9
:1040800034F8023B13F4807F03D0C3F343239942F7
:1040900009D001303028F3D1002342F831300448F0
:1040A00010BCFFF7EDBE10BC704700BFAC00002095
:1040B0002001002038B50246FFF7AAFF094C02F1A3
:1040C000080540B134F8153007495B0B03F5A273BE
:1040D000002041F823001046FFF7C2FF002324F818
:1040E000153038BDAC000020006000402DE9FF41D4
:1040F000044617461D4621B34E4E00F1080836F817
:1041000018309B0706D5FFF783FF18B14A4804B063
:10411000BDE8F0810023CDE900338DF80E308DF835
:104120000F300DF10F020B4620460DF10E0102F08B
:1041300082FE36F8183023F0020343F0010326F81C
:10414000183097B13B4B3E787A6804F1080033F899
:1041500010108F070CD5002AD8D133F8102022F088
:104160001C0242EA860223F81020CDBB3348CEE77A
:1041700021F02001C904C90C23F81010002AECD04A
:10418000032EC3D817782EB92D4A07F5A27142F82D
:104190002160E2E7BA0002F1804202F5C04241EA42
:1041A0004731D2F810C52CF0030CC2F810C5D2F874
:1041B00010C52CF44F3C2CF4407CC2F810C5D2F84A
:1041C00010E54FEA042C0CF47C5C4EEA064E4CEAF7
:1041D0000E0C41F0200123F81010C2F810C5BCE706
:1041E000D5E900672046FFF73BFF002EBED0114DFA
:1041F0002B689E4204D16B689F4201D100220AE0E5
:1042000010480DF10F01FFF715FE0C4B98427FF49B
:104210007EAF9DF80F2045F8326005EBC2030834ED
:104220005F6035F8143043EA422343F4807325F885
:1042300014309BE7AC0000200400AD0B0000AD0B78
:104240000060004020010020F0B5044685B015460E
:1042500019B3334E00F1080736F81720930703D43B
:10426000FFF7D6FE002858D112F01C0F02D04B7871
:10427000012B52D001238DF80F300023CDE900131C
:104280004A1C8B1C20460DF10F0102F0D4FD36F8BC
:10429000173043F0030326F8173015B9214805B04D
:1042A000F0BD1F4E04F1080736F81700830734D518
:1042B00095F800C06146890020F0200001F180419E
:1042C000C00401F5C041C00C26F817000023C1F856
:1042D00010356A78002AE1D0D1F81035AD7823F492
:1042E000991323F4F853C1F81035D1F810E52302DF
:1042F00003F47C53120402F4403243EA0E031343E6
:104300002A0502F4801240EA4C30134340F02000AA
:1043100026F81700C1F81035C0E70348BFE700BF13
:10432000AC0000200000AD0B0400AD0B014BC3E955
:1043300002017047AC00002008B50246FFF768FE96
:1043400038B1054B0548083233F812305B0B0B705F
:1043500008BD0348FCE700BFAC0000200000AD0B27
:104360000400AD0B38B50F4C94F87850BDB96022FD
:10437000294604F1100002F098F80620FDF732FEFD
:10438000094B0A48C3F87C51D3F87C214FF0004216
:10439000C3F80423012384F87830636738BD0448E8
:1043A000FCE700BFAC000020006000400000AD0B47
:1043B0000500AD0B034B93F87800003818BF0120BF
:1043C000704700BFAC00002001460148FFF758BD10
:1043D0001C01002001460148FFF72CBD1C010020F4
:1043E00037B50446FFF714FE04F108021E4B33F8FC
:1043F0001230E8B113F002051AD15B0B9A0002F1FA
:10440000804000F5C24002F1804202F5C0420560E2
:104410000068D2F8100540F00100C2F8100529B17B
:10442000012202FA03F3114AC2F8043303B030BD8B
:10443000C3F38203042B12D0052B12D001A80194E0
:10444000FFF7D8FD019BD0F81015D94001F001010C
:104450000231204603B0BDE8304002F033BD0321F5
:10446000F7E70221F5E700BFAC0000200060004044
:1044700008B50246FFF7CCFDC0B102F108010E4BB2
:1044800033F81130990711D45B0B01229A409B003D
:104490000A4903F1804303F5C043C1F80823D3F868
:1044A000102522F00302C3F8102508BDBDE808401E
:1044B0000021104602F006BDAC0000200060004064
:1044C0000E4B00F1080213B533F81230DB07044637
:1044D00011D5FFF7CDFF2046FFF7ECFD01A80194B1
:1044E000FFF788FD019B03F5E073022240F82320CB
:1044F000034802B010BD0348FBE700BFAC0000203A
:104500000000AD0B0400AD0B2DE9F04F644B654886
:104510006549002687B0012234461D6835B1D0F8C0
:10452000045315421EBF1C601D68164304338B42A2
:104530004FEA4202F1D1DFF86C81D8F87C31002BD0
:1045400000F091804FF0A043D3F820250492C3F8E7
:104550002025D3F820280592C3F8202800270DF144
:1045600010097B0100934FF0010A49E0009B4F4A7C
:1045700094FAA4F4B4FA84F41C4404F10803E008A7
:1045800032F81330039404F007020AFA02FC19F817
:10459000002022EA0C0209F8002003A8C3F38205D8
:1045A0009908FFF727FD039A02F5E0724B0750F8D0
:1045B0002220AB46C2F3014229D520465946D5B246
:1045C000FFF730FD03A80394FFF714FD039B03F5E9
:1045D000E07350F82330C3F301439D4207D100211B
:1045E000204602F06FFC2946204602F06BFC03A82F
:1045F0000394FFF7FFFC039B0AFA03F3C0F820358E
:1046000059F82740002CB1D1CFB90127A9E7022AD8
:104610000CBF032102212046019202F053FC032D1E
:1046200004D0019A022A06D1012DE0D15946204634
:10463000FFF7F8FCDBE7032AD9D1022DF5E7C8F82C
:104640007C41D8F87C311A494FF0A043D3F820259B
:104650000492C3F82025D1F820350593C1F8203500
:1046600013437FF47BAF012416B907B0BDE8F08F88
:1046700096FAA6F3B3FA83F304FA03F29B0003F16C
:10468000804303F5C04326EA0206D3F81005D3F8A9
:104690001015C0F30520C1F30141FFF7C3FCE3E7A8
:1046A000006100400060004020610040AC0000203C
:1046B0000003005001460148FFF7BCBB2801002061
:1046C00037B5304B01930023C0F80431D0F80421F2
:1046D000C0F82431D0F82421C0F81C31D0F81C21B6
:1046E000C0F80831D0F80821C0F800324B6381F8D7
:1046F0002F300123036291F82D200D469A4218BFF6
:104700008360044602F0EDFB2B6883B140F2862300
:10471000AB60AB681C48C4F8043303B030BD294615
:10472000204602F0FBFB28B1019B013B0193019B5A
:10473000002BF4DC95F82F305BB91348019B002B5C
:10474000EBDC0023C4F8003505231048C4F800351D
:10475000E3E7D4F8C434C4F8C4348BB10C4A0B4832
:1047600013F0010F18BF104613F0020F02F10102FF
:1047700018BF104613F0040F064B18BF1846DDE7AC
:104780000248DBE7A08601000000AD0B0100AD0B85
:104790000000AE0B0200AE0B37B5344B0193002383
:1047A000C0F80431D0F80421C0F82431D0F8242115
:1047B000C0F81C31D0F81C21C0F80831D0F808210D
:1047C0004B6381F82F308B6A012B04460D4617D1BD
:1047D0000B6A5B0614D40223C4F80032012323625F
:1047E00095F82D20022A18BF23602B6893B140F260
:1047F0008623AB60AB681E48C4F8043303B030BDF9
:104800000123E9E72946204602F088FB28B1019BF5
:10481000013B0193019B002BF4DC95F82F305BB931
:104820001348019B002BE9DC0023C4F80035052365
:104830001048C4F80035E1E7D4F8C434C4F8C434EF
:104840008BB10D4A0B4813F0010F18BF104613F03F
:10485000020F02F1010218BF104613F0040F074BBC
:1048600018BF1846DDE70348DBE700BFA08601005C
:104870000000AD0B0100AD0B0000AE0B0200AE0B53
:10488000F8B50779294D4FF03C0C0CFB07FC05EB04
:104890000C0494F82E60002E46D1006863604B7BB8
:1048A00084F838308B7BA66045F80C2084F82D60A6
:1048B00084F8316084F8306084F83930E3B90C68EA
:1048C0001B4B04F01F066409012C18BF4FF0A04ECB
:1048D00006F5E07408BF9E4640F20C6C4EF824C00A
:1048E0004C6804F01F066409012C18BF4FF0A04368
:1048F00006F5E07443F824C0CB7B2BB9D1E9004323
:10490000C0F80845C0F80C358B68C0F824351AB1DA
:1049100040F30730FDF766FB3C2303FB07550548D2
:10492000012385F82E30F8BD0348FCE78C0D0020EC
:10493000000300500000AD0B0500AD0B03680279C9
:104940000521C3F80015044B3C2101FB0233022270
:1049500083F82E20704700BF8C0D002002680C4B9E
:1049600010B50479C2F80833D2F80012094B21F0CF
:104970000301C2F800120021C2F800153C2202FB1C
:104980000433012283F82E2083F8301010BD00BFBD
:10499000864204008C0D00202DE9F047314F047948
:1049A000D0F800903C2303FB04730D4693F82D30A0
:1049B000012B944604D10B78012B06D12A4811E033
:1049C000022B02D10B78012BF8D13C26274BC9F8DA
:1049D000083306FB047696F830302BB1B3682448D0
:1049E000C9F80433BDE8F0878CF00403C3F38003F7
:1049F00086F83030C6F820C0A846B8E80F0006F1A7
:104A00000C0EAEE80F00D8F80030CEF800306B681E
:104A1000B362EB6873626B78C9F888352B78C4EBA6
:104A2000041A012B07EB8A0A17D09BB9CCF3401C60
:104A30003C2303FB0473514683F82CC04846FFF720
:104A40003FFE3C235C433A193B59002BCAD182F804
:104A50003030C7E74FF0010CEAE751464846FFF710
:104A60009BFEEEE78C0D00200500AD0B8642040096
:104A70000B00AD0BF0B52B4C2B4887B0214602F054
:104A80004DFA002840D194F82F70D4F820C0FFB917
:104A9000237B9A1E012A1BD8616AA269914217D111
:104AA000E2696262CCF3401C62691F48A262032B78
:104AB00084F82CC084F82D70214604D107B0BDE8DD
:104AC000F040FFF7FDBD07B0BDE8F040FFF764BE62
:104AD000164E0FCE01AD0FC533682B60FFB1124AE1
:104AE000D2F8C434C2F8C43499070FD501238DF825
:104AF000003000231CF0040F84F8303000D01FB1C8
:104B0000D4E900316846984707B0F0BD5A0701D58F
:104B10000223ECE7DB074CBF03230423E7E78DF810
:104B20000070E6E78C0D002000300040980D00205A
:104B3000036803F01F025B09012B0260024818BFE3
:104B40004FF0A040704700BF00030050F7B5064685
:104B500002F070FA084602F06DFA01A80196FFF71C
:104B6000E7FF019B03F5E0730C4640F20D6140F84E
:104B7000231001A80194FFF7DBFF019B03F5E0730D
:104B8000092540F82310042002F007F9012701A8A5
:104B90000194FFF7CDFF019AD0F81035D340DB0721
:104BA00015D401A80196FFF7C3FF019B07FA03F391
:104BB000C0F80C35042002F0F0F8304602F03AFA62
:104BC000013D042002F0E9F815F0FF05DFD101A84E
:104BD0000194FFF7ADFF019A01239340C0F80C3513
:104BE000042002F0DAF8204602F024FA042002F051
:104BF000D4F801A80194FFF79BFF019AD0F8103573
:104C00000348D34003F00103C01A03B0F0BD00BF56
:104C10000100AD0B10B5144C144A15490323236150
:104C20006361144BA261E3614FF48063236200234C
:104C3000A3626362E36222660F4A6266E01D10228D
:104C4000A2662367E366636701F00AFCBFF35F8F28
:104C50000A49204601F004FCBFF35F8F2023A371B3
:104C6000BFF35F8F10BD00BFC80D0020A67B000002
:104C7000AF7B0000A910002099100020B37B00003A
:104C80000E4B70B553F82040013053F82060A64217
:104C900000D870BDD4E900352846984765B1EB6867
:104CA00030B10028B8BF4042FF28A8BFFF201870CD
:104CB0005A7842F001025A700834E8E7747800002C
:104CC00008B50A4B012202201A70FFF7D9FF01F044
:104CD0001BF80320FFF7D4FF00F068F9FBF7AEFEE6
:104CE000034A137B23F00103137308BDA9140020AA
:104CF000D006002008B50348034A0021121A02F02A
:104D0000D3F908BD00020020AC14002070B50023C8
:104D100086B00122CDE90423134E144D01930F22D6
:104D2000CDE902321249182303FB005506EBC016E9
:104D300004464FF4B07000FB04110E4B00954FF485
:104D4000A072304600F0D4F8737B0B482C7523F02A
:104D5000040373734FF4026303FB04041C44EE600A
:104D60006C6006B070BD00BF50060020700E0020C1
:104D7000802D002065500000E02E002080B52D4BD6
:104D8000A6B083F308882C4D2C4E6B692C4F43F44E
:104D9000007300246B61E02385F82230EC772C76D9
:104DA0006C76AC7685F820406B6A43F4E0236B6246
:104DB00085F82340FDF724FBFDF7F6F84FF0FF33AD
:104DC000AB62EB62FDF772FCFDF7DAFB40F2011318
:104DD000ADF8243006ABB360CDE91F44229402F055
:104DE0003DF92046FFF74CFF0120164DFFF748FF25
:104DF00000F09AFC144BF5610593012313490094CC
:104E0000CDE903434FF480623B46CDE90144284697
:104E100000F06EF86A7B064622F0040228466A73A8
:104E200002F0E4F92046FFF771FF3A463146284682
:104E3000FDF7B4F90037002000ED00E0700E00200F
:104E4000C14C0000D0060020BA7B00006029002081
:104E500070B50E4B0E4CA34201D3002070BDD3E9B8
:104E6000030141EA000212F003020BD19D685A616E
:104E7000AA4201D11C33EEE75E690E60013259612E
:104E80000144F5E76FF01500E8E700BFAC01002032
:104E9000AC01002037B50C464FF02005EFF311812F
:104EA00085F31288BFF36F8F45695DB125602B686C
:104EB0004361836901338361002081F31188BFF36B
:104EC0006F8F11E052EA030C03D125606FF00B00E5
:104ED000F3E7CDE900230246083000F07BFB18B968
:104EE000024B9B685B69236003B030BD700E0020ED
:104EF0002DE9FF410E9E0673042646730D9E8673B0
:104F000000F158050F46D61DC0E916550C9A00252C
:104F100026F007062037C0E90655C0E919768560F6
:104F2000C573C56606F1200802920B9A0192884467
:104F30000A9A009242460446FDF7FEF8044B656566
:104F40009B6803B11B6F2367404604B0BDE8F08146
:104F5000700E0020F0B587B000270597109F0497CA
:104F60000F9F03970E9F0297DDE912650D9F019732
:104F70000C9F00970446FFF7BBFFB5F1FF3F08BF4A
:104F8000B6F1FF3F05D055EA060305D1204600F0F3
:104F9000C5FA204607B0F0BD034932462B4604F15E
:104FA000180000F02BFDF4E70D7200002DE9F0432E
:104FB000294C2A4D87B02646AE4204F130040FD367
:104FC00000F0C6F9244CDFF898904FF4004640F208
:104FD000E737AC4220D307B0BDE8F04300F088BB10
:104FE00054F8043C059354F8103C049354F8143CD2
:104FF000039354F8183C029354F81C3C019354F862
:10500000203C009354E90C0154E90A23FFF770FF98
:1050100054F8303C5E65CEE7636A5A1C0DD023EA33
:10502000E37300213846C3FB060151EAC333D4F8C9
:10503000008004D1404600F071FA3034C9E74FF4E3
:105040007A720023FBF75CF802460B4608F1180061
:10505000494600F0D3FCF0E7AC010020AC01002091
:105060000D72000008B50B4C0B4D4FF02002EFF312
:10507000118382F31288BFF36F8F02F056F92B78F9
:10508000A06113B9FCF796FFEFE7FCF7E9FD0028F4
:10509000EBD1F7E7700E0020A91400202DE9F341B1
:1050A000044617461E464FF02003EFF3118883F3A2
:1050B0001288BFF36F8FC368324A6BB18068916802
:1050C000884219D057EA060318D188F31188BFF334
:1050D0006F8F6FF00F000CE0916891F90E10216155
:1050E0000133E3609368A36088F31188BFF36F8F87
:1050F000002002B0BDE8F0812169F0E791F90E10BF
:1051000090F90E309942A8BF19466FF07E02914285
:10511000B8BF11468B422EDD02F01BF80546CDE9E3
:10512000007619482246414600F054FA0028E0D0A3
:105130004FF02003EFF3118683F31288BFF36F8FD4
:10514000236821699C420AD04BB193F90E309942F1
:10515000A8BF19466FF07E039942B8BF1946A068F0
:1051600001F0F7FF00B945B10748314600F0DEF81D
:105170006FF00A00BDE70025D1E786F31188BFF381
:105180006F8FF5E7700E0020AA14002038B58368F1
:105190000446002B32D01C4A9268934231D1DA7B0C
:1051A000013ADA73C368012B05D9013BC36000F0F3
:1051B0009FFA002038BD4FF02003EFF3118583F3F1
:1051C0001288BFF36F8F0169806801F0C2FF20462B
:1051D00002F07DF8A06058B190F90E202261002203
:1051E000826702F003F80948294600F09FF8DEE7DD
:1051F000E06085F31188BFF36F8FD8E76FF015007B
:10520000D8E74FF0FF30D5E7700E0020AA14002039
:1052100038B504464FF02003EFF3118583F312886D
:10522000BFF36F8F02F053F848B10022826701F09C
:10523000DDFF29460548BDE8384000F077B8D4E9DD
:1052400002329A4218BF0133A360F2E7AA14002089
:1052500013B54FF02004EFF3118184F31288BFF3EC
:105260006F8F846844B1013C846081F31188BFF37F
:105270006F8F002002B010BD52EA030406D181F303
:105280001188BFF36F8F6FF00F00F3E7CDE90023B4
:105290000246024800F09EF9ECE700BFAA14002085
:1052A00038B5074D2C6854B1FEF774FC054B044427
:1052B0001C6128680021BDE8384002F046B838BDBE
:1052C000A00E0020700E0020F8B504460D464FF0E9
:1052D0002003EFF3118783F31288BFF36F8F104E13
:1052E00000214FF4004C40F2E730316100234FF4CD
:1052F0007A72E4FB0C01FAF703FF002C094B0ADC7D
:105300001860094BB0681D60FFF7CAFF87F311886A
:10531000BFF36F8FF8BD0228B8BF0220F0E700BFCF
:10532000700E0020A00E00209C0E002049B9EFF363
:10533000058030B9054BDA699B689A4201D0FCF7C9
:10534000A7BE81F31188BFF36F8F7047700E0020E6
:105350004FF02003EFF3118183F31288BFF36F8FB7
:10536000044B9A68D37B013BD37381F31188BFF35D
:105370006F8F7047700E002038B502460C480D4DF7
:1053800001F02EFF044600B9EC68AB684AB95A7BBD
:10539000D20606D1A26922B9DA897F2A01D9EB6146
:1053A00038BD9C4202D02046FFF77AFFEC61F7E758
:1053B000900E0020700E002070B590F90D20437BF8
:1053C000002A014604DA03F07F03437301F0D0FEA4
:1053D0004B7B154A63F07F034B73D2E9083402F12B
:1053E0002005AB421BD0D3B191F90E6093F90E00AA
:1053F00086420FD0801B00280CDD5868C1E90030C0
:10540000016059609068431A5842BDE870405841A5
:10541000FFF7B2BFA34202D01B68002BE6D1C1E95F
:10542000005421605162EDE7700E002038B54FF056
:105430002003EFF3118583F31288BFF36F8F174BAF
:10544000174A9C6811688C4207D12046FFF728FF55
:1054500085F31188BFF36F8F38BD00211160114AA9
:105460001268C2B1E2897F2A15D8627BD20612D1B6
:105470000D4A94F90E10126891420CDB0B4A9442CB
:1054800009D01A69824203DC2046FFF795FFDCE76A
:10549000121A1A61DCE70022FBE700BF700E002041
:1054A000980E0020A00E00209C0E00205006002028
:1054B00070B490F90D20437B002A2ADBDA0628D14C
:1054C000826932BB144A63F07F034373D2E9083424
:1054D00002F12005AB4217D0B3B190F90E6093F9F9
:1054E0000E108E420BD0891B002908DD5A68C0E9D6
:1054F00000321060586070BC0020FFF73DBFA3422F
:1055000002D01B68002BEAD1C0E900542060506231
:10551000F1E770BC704700BF700E002010B54FF06F
:105520002002EFF3118482F31288BFF36F8F427B66
:10553000510704D484F31188BFF36F8F10BD22F09C
:1055400004024273FFF7B4FF21460248BDE8104051
:10555000FFF7ECBEAA14002008B590F90D20437B9C
:10556000002A014604DA03F07F03437301F000FED2
:10557000044B9868431A58425841BDE80840FFF769
:10558000FBBE00BF700E00202DE9F0410646154617
:105590001C464FF02003EFF3118783F31288BFF30B
:1055A0006F8F01F055FE87F31188BFF36F8FB4F151
:1055B000FF3F08BFB5F1FF3F08D02A46234606F15A
:1055C00018000349BDE8F04100F018BABDE8F081C9
:1055D0000D72000010B5074B9868074B0C46186019
:1055E0001146DDE90223FFF7CFFF2046BDE810405A
:1055F000FCF74EBD700E0020980E0020F8B5044652
:105600004FF02003EFF3118683F31288BFF36F8FFF
:10561000437BDA0649B233D182698ABB03F07F0348
:10562000437301F0A5FD437B174A817363F07F0349
:105630004373104650F8203F83421BD0D3B1576AC2
:1056400093F90E50A94210D06D1A002D0DDD5A6845
:10565000C4E9003214605C600120FFF78DFE012078
:1056600086F31188BFF36F8FF8BDBB4202D01B6871
:10567000002BE5D1536AC4E900031C605462EBE7D8
:10568000A1730020ECE700BF700E002070B5044647
:10569000183001F034FE4FF02003EFF3118683F34E
:1056A0001288BFF36F8F94F90D20637B002A05DA0F
:1056B00003F07F036373204601F05AFD0B4D637BBB
:1056C000A86843F010036373031B58425841FFF767
:1056D00053FE86F31188BFF36F8FAB68A34203D1EB
:1056E000BDE8704001F072BD70BD00BF700E0020BB
:1056F00010B54FF02003EFF3118483F31288BFF34A
:105700006F8F084B9A68D37B0133D3730020FFF768
:1057100033FE84F31188BFF36F8FBDE8104001F0B2
:1057200055BD00BF700E0020044B002103F1200284
:10573000C3E908220846FFF7C7BD00BF700E00206E
:10574000F8B54FF02003EFF3118583F31288BFF310
:105750006F8F1A498868437B03F07F03437301F01E
:1057600007FD8B685A7B084662F07F025A7350F837
:10577000202F82421CD0DAB14F6A93F90E6092F961
:105780000E40A6420FD0A41B002C0CDD5168C3E9CB
:1057900000210B6053600120FFF7EEFD2846BDE8B5
:1057A000F840FCF775BCBA4202D01268002AE6D174
:1057B0004A6AC3E9000213604B62ECE7700E0020F6
:1057C00050EA01032DE9F04105460E4603D1FFF7EB
:1057D000B7FF002033E06FF00104241A4FF0FF33CD
:1057E00063EB0103012C73F1000302DA01F0C7FD42
:1057F00044194FF02003EFF3118883F31288BFF3AD
:105800006F8F104F104BB8681860FFF7A5FEB8688F
:105810000E492A463346183000F0F0F8BA68537B38
:1058200043F0100353734046FCF732FC01F0A7FD30
:10583000201A63EB0303012873F10003C9DBBDE801
:10584000F08100BF700E0020980E00200D72000045
:10585000B1F1FF3F08BFB0F1FF3F08B506D1084BDB
:105860009868FFF713FF4FF0FF3008BDFFF7A8FF60
:105870004FF47A7380FB0303C00B40EA4340F4E724
:10588000700E0020014B9868704700BF700E00201A
:105890002DE9F04104464FF02003EFF3118683F326
:1058A0001288BFF36F8F437B1A0705D586F31188E3
:1058B000BFF36F8FBDE8F08123F0200242F00801B2
:1058C000D20920D14173A36813B1204601F058FCDE
:1058D00004F1180001F013FD04F158074FF000081F
:1058E000A56DBD4200D0B5B90120FFF745FD104BB5
:1058F0009B68A342DAD1EFF30583002BD6D1304663
:10590000FCF7C6FBD2E703F05F0343F008034373E1
:1059100001F02EFCD7E7284601F032FC05F1180013
:1059200001F0EDFCC5F878802846FFF7C1FDD7E708
:10593000700E002008B50648064A0749121A01F001
:10594000B5FBBDE80840054A0549064801F0AEBB75
:1059500000000020FC010020F47B0000000000009B
:10596000F47B000000000020034B1B680BB9FEF71E
:1059700011B90020704700BFA40E0020104B10B5D5
:105980001C689C4208BF0024FFF7EEFFA4B1D4E9D5
:1059900004321B1A62EBE070B3F1004F70F10002A9
:1059A0000ADA0028ACBF18460020064B1B6913B169
:1059B0009842A8BF184610BD6FF00040F5E700BF41
:1059C0002C010020700E002030B5036868B10A4A2F
:1059D0005268904209D043B1D3E90421D0E904458B
:1059E000121941EB0501C3E90421426813605A60B2
:1059F0000023C0E9003330BD2C010020B3F1FF3F8C
:105A000008BFB2F1FF3FF8B504461F46154667D000
:105A100081604FF02003EFF3118683F31288BFF308
:105A20006F8F6FF00102531B4FF0FF3C6CEB0703CD
:105A3000002B1BDB2B4BD3E90013521A6CEB030337
:105A4000551B63EB0703012D73F10002BCBF012559
:105A50000023C0E904532448D0E9003C834218D114
:105A6000C4E9000CCCF80040446026E0FFF77CFF5E
:105A7000013547F100072D1847EBE077C4E90457DB
:105A8000E9E7521A65EB07059C45C4E90425E7D010
:105A90001B68002BE4D0D3E90417D4E904258A421B
:105AA00075EB070EEDDA8A1A67EB0505C3E90425E5
:105AB0005A68C4E9003214605C60036883420BD00A
:105AC0009C4209D1FFF75AFF18B1084B1B6983426A
:105AD00002D00021FEF72CF886F31188BFF36F8FF8
